:020000040800F2
:1000000000500020A11A0008BD190008C5190008F9
:10001000CD190008D5190008DD19000800000000FE
:10002000000000000000000000000000E5190008CA
:10003000F119000800000000FD190008091A000865
:10004000E91A0008E91A0008E91A0008E91A000884
:10005000E91A0008E91A0008E91A0008E91A000874
:10006000E91A0008E91A0008E91A0008E91A000864
:10007000E91A0008E91A0008E91A0008E91A000854
:10008000E91A0008E91A0008E91A0008E91A000844
:10009000E91A0008E91A0008E91A0008E91A000834
:1000A000E91A0008E91A0008E91A0008E91A000824
:1000B000151A0008E91A0008E91A0008E91A0008E8
:1000C000E91A0008E91A0008E91A0008E91A000804
:1000D000E91A0008E91A0008E91A0008E91A0008F4
:1000E000E91A0008E91A0008E91A000800000000EF
:1000F0000000000000000000000000000000000000
:0C01000000000000000000005FF808F1A3
:10010C0010B5054C237833B9044B13B10448AFF345
:10011C0000800123237010BDE400002000000000CB
:10012C002C46000808B5034B1BB103490348AFF339
:10013C00008008BD00000000E80000202C460008EC
:10014C0080B483B000AF78600E497A6813469B0088
:10015C001344DB000B441C331B68012B0BD10949E6
:10016C007A6813469B001344DB000B441C330022BB
:10017C001A60012300E0002318460C37BD4680BCF2
:10018C00704700BF0000002080B483B000AF7860DF
:10019C000E497A6813469B001344DB000B44203352
:1001AC001B68012B0BD109497A6813469B00134439
:1001BC00DB000B44203300221A60012300E00023F3
:1001CC0018460C37BD4680BC704700BF00000020AD
:1001DC0080B582B000AF00237B60F4E07E497A6882
:1001EC0013469B001344DB000B440C3319687A480C
:1001FC007A6813469B001344DB00034410331960E8
:10020C0075497A6813469B001344DB000B44083392
:10021C00196871487A6813469B001344DB00034449
:10022C000C3319606C497A6813469B001344DB004D
:10023C000B44186868497A6813469B001344DB002A
:10024C000B4404331B88194601F062FF0346184621
:10025C0061497A6813469B001344DB000B44083356
:10026C0018605D497A6813469B001344DB000B440D
:10027C000C33196858487A6813469B001344DB000A
:10028C00034408331B68994240F09A8052497A68BB
:10029C0013469B001344DB000B440C3319684E4887
:1002AC007A6813469B001344DB00034410331B682D
:1002BC00994240F0858048497A6813469B00134464
:1002CC00DB000B441033196843487A6813469B00D3
:1002DC001344DB00034414331B68994232D03E496B
:1002EC007A6813469B001344DB000B4410331968E7
:1002FC0039487A6813469B001344DB0003441433DB
:10030C00196035497A6813469B001344DB000B4493
:10031C0014331B68002B53D12F497A6813469B006A
:10032C001344DB000B4418334FF4FA721A602A4959
:10033C007A6813469B001344DB000B441C330122E8
:10034C001A603DE024497A6813469B001344DB0095
:10035C000B4418331B68591E1F487A6813469B00C0
:10036C001344DB000344183319601B497A681346A5
:10037C009B001344DB000B4418331B68002B1FD16C
:10038C0015497A6813469B001344DB000B44183361
:10039C004FF4FA721A6010497A6813469B001344A2
:1003AC00DB000B4414331B68002B09D10A497A6813
:1003BC0013469B001344DB000B44203301221A60CC
:1003CC007B6801337B607B68022B7FF707AF00BF34
:1003DC0000BF0837BD4680BD0000002080B500AFCF
:1003EC00A44B1B68013B042B00F2268201A252F89D
:1003FC0023F000BF15040008D9040008B10500085B
:10040C00A10600087707000800F0D2FC9A4B1B6885
:10041C0001334FF47A7202FB03F31946002001F00A
:10042C0083F96421092001F07FF94FF47A710120DE
:10043C0001F07AF94FF47A71082001F075F98D4BBF
:10044C0002221A600020FFF77BFE0346002B05D129
:10045C000020FFF799FE0346002B0ED04FF40071DD
:10046C00864801F084FE834B16221A6000F000FFD0
:10047C004FF4FA71032001F057F90120FFF760FEE9
:10048C000346002B05D10120FFF77EFE0346002B0F
:10049C0009D04FF40071794801F069FE00F0E8FED4
:1004AC00744B20221A600220FFF74AFE0346002BF1
:1004BC0006D10220FFF768FE0346002B00F0BE8138
:1004CC004FF400716D4801F052FEB7E100F0A0FC52
:1004DC006B4B5B68012B21D16A4B1B68664A13601E
:1004EC00694B1A68674B1B68D31A013B674A136048
:1004FC00654B1A68634B1B68D31A013B644A136043
:10050C00624B1B6801334FF47A7202FB03F31946FA
:10051C00002001F009F9574B03221A600020FFF765
:10052C000FFE0346002B05D10020FFF72DFE0346DE
:10053C00002B0ED04FF40071504801F018FE4D4BBB
:10054C0016221A6000F094FE4FF4FA71032001F0A9
:10055C00EBF80120FFF7F4FD0346002B05D1012039
:10056C00FFF712FE0346002B09D04FF400714348ED
:10057C0001F0FDFD00F07CFE3E4B20221A600220B3
:10058C00FFF7DEFD0346002B06D10220FFF7FCFD32
:10059C000346002B00F054814FF40071374801F0F2
:1005AC00E6FD4DE100F08AFC354B5B68012B1DD15B
:1005BC00354B1B68364A1360334B1A68314B1B683A
:1005CC00D31A013B314A13602E4B1B682A4A136025
:1005DC00294B1B6801334FF47A7202FB03F3194663
:1005EC00002001F0A1F8234B04221A600020FFF731
:1005FC00A7FD0346002B05D10020FFF7C5FD0346E0
:10060C00002B0ED04FF400711C4801F0B0FD194BBB
:10061C0016221A6000F02CFE4FF4FA71032001F040
:10062C0083F80120FFF78CFD0346002B05D1012038
:10063C00FFF7AAFD0346002B09D04FF400710F48B9
:10064C0001F095FD00F014FE0A4B20221A600220E6
:10065C00FFF776FD0346002B06D10220FFF794FD31
:10066C000346002B00F0EE804FF40071034801F0BC
:10067C007EFDE7E000010020180100200010014081
:10068C0008020020780000207C0000201C010020C3
:10069C001401002000F068FC6E4B5B68012B21D12B
:1006AC006D4B1A686D4B1B68D31A013B6C4A136077
:1006BC00694B1A68694B1B68D31A013B694A136072
:1006CC00664B1B68684A1360654B1B6801334FF41B
:1006DC007A7202FB03F31946002001F025F8634BF4
:1006EC0005221A600020FFF72BFD0346002B05D1D5
:1006FC000020FFF749FD0346002B0ED04FF400718C
:10070C005B4801F034FD594B16221A6000F0B0FD25
:10071C004FF4FA71032001F007F80120FFF710FDE8
:10072C000346002B05D10120FFF72EFD0346002BBD
:10073C0009D04FF400714E4801F019FD00F098FDFE
:10074C004A4B20221A600220FFF7FAFC0346002BCA
:10075C0005D10220FFF718FD0346002B74D04FF48F
:10076C000071434801F003FD6EE000F053FC394B7F
:10077C005B68012B1DD1394B1B683B4A1360364B10
:10078C001A68364B1B68D31A013B354A1360324B3F
:10079C001B68344A1360344B1B6801334FF47A7274
:1007AC0002FB03F31946002000F0BEFF2F4B022280
:1007BC001A600020FFF7C4FC0346002B05D1002073
:1007CC00FFF7E2FC0346002B0ED04FF400712848D3
:1007DC0001F0CDFC254B16221A6000F049FD4FF4B8
:1007EC00FA71032000F0A0FF0120FFF7A9FC0346DB
:1007FC00002B05D10120FFF7C7FC0346002B09D0C5
:10080C004FF400711A4801F0B2FC00F031FD174BA7
:10081C0020221A600220FFF793FC0346002B05D11F
:10082C000220FFF7B1FC0346002B0FD04FF40071F0
:10083C000F4801F09CFC09E000BF08E000BF06E097
:10084C0000BF04E000BF02E000BF00E000BF00BF3B
:10085C0080BD00BF080200207C0000207800002032
:10086C001C010020140100201801002000010020B0
:10087C000010014080B500AF414B1B68202B02D00B
:10088C00212B3CD07AE000F029FD0020FFF758FC2A
:10089C000346002B05D10020FFF776FC0346002B06
:1008AC0004D04FF40071374801F061FC0120FFF7D0
:1008BC0047FC0346002B05D10120FFF765FC0346DE
:1008CC00002B07D04FF400712E4801F050FC2C4B3C
:1008DC0021221A600220FFF733FC0346002B05D1BE
:1008EC000220FFF751FC0346002B44D04FF400715B
:1008FC00244801F03CFC224B01221A603BE000F042
:10090C0027FD0020FFF71CFC0346002B05D100201F
:10091C00FFF73AFC0346002B04D04FF40071194842
:10092C0001F025FC0120FFF70BFC0346002B05D141
:10093C000120FFF729FC0346002B07D04FF4007170
:10094C00104801F014FC0E4B20221A600220FFF715
:10095C00F7FB0346002B05D10220FFF715FC0346DD
:10096C00002B0AD04FF40071064801F000FC044B38
:10097C0001221A6001E000BF00E000BF00BF80BD93
:10098C00000100200010014080B500AF8B4B1B68AC
:10099C00182B00F0B780182B00F30681162B02D011
:1009AC00172B58D000E100F08BFB0020FFF7C8FBA1
:1009BC000346002B05D10020FFF7E6FB0346002B76
:1009CC000FD04FF400717E4801F0D1FB7B4B172206
:1009DC001A604FF4FA71032000F0A6FE794B002246
:1009EC001A600120FFF7ACFB0346002B05D1012058
:1009FC00FFF7CAFB0346002B10D04FF40071704870
:100A0C0001F0B5FB6F4B1B6801336E4A13606D4BE5
:100A1C001B68632B02DD6B4B00221A600220FFF770
:100A2C008FFB0346002B06D10220FFF7ADFB0346DC
:100A3C00002B00F0BB804FF40071614801F097FB74
:100A4C00604B1B68604A13605E4B00221A605B4B64
:100A5C0017221A60AAE000F07BFB0020FFF770FB66
:100A6C000346002B05D10020FFF78EFB0346002B1D
:100A7C000FD04FF40071524801F079FB4F4B182204
:100A8C001A604FF4FA71032000F04EFE4D4B002219
:100A9C001A600120FFF754FB0346002B05D10120FF
:100AAC00FFF772FB0346002B10D04FF40071444843
:100ABC0001F05DFB434B1B680133424A1360414B11
:100ACC001B68632B02DD3F4B00221A600220FFF7EC
:100ADC0037FB0346002B05D10220FFF755FB0346DD
:100AEC00002B65D04FF40071354801F040FB354BBD
:100AFC001B68364A1360334B00221A602F4B1822A6
:100B0C001A6055E000F06CFB0020FFF719FB034660
:100B1C00002B05D10020FFF737FB0346002B0AD032
:100B2C004FF40071264801F022FB244B01221A607D
:100B3C00244B00221A600120FFF702FB0346002B16
:100B4C0005D10120FFF720FB0346002B10D04FF4FA
:100B5C0000711B4801F00BFB1A4B1B680133194A3F
:100B6C001360184B1B68632B02DD164B00221A60B6
:100B7C000220FFF7E5FA0346002B05D10220FFF710
:100B8C0003FB0346002B15D04FF400710C4801F009
:100B9C00EEFA0C4B1B680E4A13600A4B00221A60CB
:100BAC00064B01221A6005E000BF04E000BF02E022
:100BBC0000BF00E000BF00BF80BD00BF00010020EF
:100BCC0000100140200100207C0000207800002053
:100BDC008000002080B582B000AF786039607B68FF
:100BEC000E4A10210E4803F057F80021002000F0A7
:100BFC00BCF80B4800F0A4F83B68084A10210848E0
:100C0C0003F04AF80021012000F0AFF8044800F08E
:100C1C0097F800BF0837BD4680BD00BF44460008AA
:100C2C000401002080B586B002AF0346FB71FB794E
:100C3C0023F00F03FB73FB791B01BB73FB7B43F0AE
:100C4C000C03DBB23B72FB7B43F00803DBB27B7221
:100C5C00BB7B43F00C03DBB2BB72BB7B43F00803E2
:100C6C00DBB2FB7207F108026423009304234221D8
:100C7C00034801F0D9FB00BF1037BD4680BD00BF53
:100C8C002401002080B586B002AF0346FB71FB79CE
:100C9C0023F00F03FB73FB791B01BB73FB7B43F04E
:100CAC000D03DBB23B72FB7B43F00903DBB27B72BF
:100CBC00BB7B43F00D03DBB2BB72BB7B43F0090380
:100CCC00DBB2FB7207F10802642300930423422178
:100CDC00034801F0A9FB00BF1037BD4680BD00BF23
:100CEC002401002080B500AF3320FFF79BFF32209A
:100CFC00FFF798FF322000F055FF2820FFF792FFF6
:100D0C00322000F04FFF0120FFF78CFF322000F063
:100D1C0049FF0620FFF786FF322000F043FF0C202E
:100D2C00FFF780FF322000F03DFF0220FFF77AFF33
:100D3C00322000F037FF8020FFF774FF00BF80BD2A
:100D4C0080B582B000AF786006E07B685A1C7A6090
:100D5C001B781846FFF796FF7B681B78002BF4D1A5
:100D6C0000BF00BF0837BD4680BD80B584B000AF62
:100D7C00786039607B68012B08D17B68DAB23B68FC
:100D8C00DBB21344DBB27F33FB7308E03B68DBB2AE
:100D9C004033DBB25BB263F07F035BB2FB73FB7B74
:100DAC001846FFF73FFF00BF1037BD4680BD00005F
:100DBC0080B400AF114B1A68114B1B689A4210DAC1
:100DCC000F4B1B680F4A13600C4B1B680E4A1360C9
:100DDC000B4B1A68094B1B68D31A013B0B4A136067
:100DEC0008E0084B05221A60074B03221A60074BD8
:100DFC0002221A6000BFBD4680BC704778000020FC
:100E0C007C00002014010020180100201C0100208F
:100E1C0080B500AF00222021224801F090F9012278
:100E2C000821204801F08BF900224FF400711E4874
:100E3C0001F085F901224FF480711B4801F07FF914
:100E4C0001224FF48061174801F079F90122102139
:100E5C00144801F074F901224021124801F06FF995
:100E6C0001228021114801F06AF9114B1B68114ACB
:100E7C00126811461846FFF7ADFE0F4BDB68012BCD
:100E8C000ED10B4B1B68013B094A1360094B1B68C5
:100E9C00013B084A13604FF47A71012000F044FCC6
:100EAC0000BF80BD000C0140000801400010014053
:100EBC0018010020140100200802002080B500AFAA
:100ECC0001222021224801F03AF900220821204871
:100EDC0001F035F901224FF400711E4801F02FF991
:100EEC0000224FF480711B4801F029F901224FF4C4
:100EFC008061174801F023F901221021144801F0F8
:100F0C001EF901224021124801F019F90122802119
:100F1C00114801F014F9114B1B68114A1268114663
:100F2C001846FFF757FE0F4BDB68012B0ED10B4B0E
:100F3C001B68013B094A1360094B1B68013B084ABB
:100F4C0013604FF47A71012000F0EEFB00BF80BDFE
:100F5C00000C014000080140001001401C01002061
:100F6C00140100200802002080B500AF01222021CE
:100F7C00224801F0E4F801220821204801F0DFF8B2
:100F8C0001224FF400711E4801F0D9F801224FF4F0
:100F9C0080711B4801F0D3F800224FF48061174890
:100FAC0001F0CDF801221021144801F0C8F80022FC
:100FBC004021124801F0C3F801228021114801F0B0
:100FCC00BEF8114B1B68114A126811461846FFF700
:100FDC0001FE0F4BDB68012B0ED10B4B1B68013B49
:100FEC00094A1360094B1B68013B084A13604FF414
:100FFC007A71012000F098FB00BF80BD000C01400D
:10100C0000080140001001401401002018010020CC
:10101C000802002080B500AF01222021224801F0F7
:10102C008EF801220821204801F089F801224FF4A2
:10103C0000711E4801F083F801224FF480711B48A7
:10104C0001F07DF801224FF48061174801F077F828
:10105C0000221021144801F072F80122402112489C
:10106C0001F06DF800228021114801F068F8114B55
:10107C001B68114A126811461846FFF7ABFD0F4B5F
:10108C00DB68012B0ED10B4B1B68013B094A13602B
:10109C00094B1B68013B084A13604FF47A7101201D
:1010AC0000F042FB00BF80BD000C01400008014075
:1010BC0000100140140100201C0100200802002037
:1010CC0080B500AF1D4BDB69012B2FD101222021F4
:1010DC001B4801F034F801220821194801F02FF8BF
:1010EC0001224FF48061164801F029F801221021E9
:1010FC00134801F024F801224FF40071114801F05B
:10110C001EF801224FF480710E4801F018F80122EC
:10111C0040210B4801F013F8012280210A4801F00C
:10112C000EF84FF4FA71032000F0FEFA074B1B681F
:10113C0019460220FFF74EFD00BF80BD08020020BB
:10114C00000C01400008014000100140200100206B
:10115C0080B500AF1D4BDB69012B2FD10022202164
:10116C001B4800F0ECFF01220821194800F0E7FFB2
:10117C0000224FF48061164800F0E1FF012210219B
:10118C00134800F0DCFF00224FF40071114800F00E
:10119C00D6FF01224FF480710E4800F0D0FF0022E0
:1011AC0040210B4800F0CBFF012280210A4800F0BF
:1011BC00C6FF4FF4FA71032000F0B6FA074B1B6818
:1011CC0019460320FFF706FD00BF80BD0802002072
:1011DC00000C0140000801400010014020010020DB
:1011EC0080B500AF1D4BDB69012B2FD101222021D3
:1011FC001B4800F0A4FF00220821194800F09FFFB3
:10120C0001224FF48061164800F099FF0022102152
:10121C00134800F094FF01224FF40071114800F0C4
:10122C008EFF00224FF480710E4800F088FF0122DF
:10123C0040210B4800F083FF002280210A4800F077
:10124C007EFF4FF4FA71032000F06EFA074B1B6817
:10125C0019460420FFF7BEFC00BF80BD0802002029
:10126C00000C01400008014000100140200100204A
:10127C0080B500AF00222021154800F060FF00224D
:10128C000821134800F05BFF00224FF480611048E6
:10129C0000F055FF002210210D4800F050FF0022F5
:1012AC004FF400710B4800F04AFF00224FF480719C
:1012BC00084800F044FF00224021054800F03FFFA1
:1012CC0000228021044800F03AFF00BF80BD00BF1F
:1012DC00000C0140000801400010014080B500AF37
:1012EC0000222021174800F02AFF0122082115486E
:1012FC0000F025FF00224FF40071134800F01FFF8F
:10130C0001224FF48071104800F019FF01224FF4B4
:10131C0080610C4800F013FF01221021094800F0F5
:10132C000EFF01224021074800F009FF0122802115
:10133C00064800F004FF00210120FFF74BFC00BF22
:10134C0080BD00BF000C01400008014000100140AE
:10135C0080B500AF01222021174800F0F0FE0122D9
:10136C000821154800F0EBFE01224FF400711348E0
:10137C0000F0E5FE01224FF48071104800F0DFFE12
:10138C0000224FF480610C4800F0D9FE012210219C
:10139C00094800F0D4FE00224021074800F0CFFE9F
:1013AC0001228021064800F0CAFE00210120FFF72F
:1013BC0011FC00BF80BD00BF000C014000080140C3
:1013CC000010014080B500AF00F08AFB00F01EF861
:1013DC0000F0FCF800F084F800F054F800F0CCF8C1
:1013EC00084801F0D9FF084B01221A60FFF77AFC7C
:1013FC00FFF778FCFEF7F2FFFFF7C6FAFFF73AFAB1
:10140C0000BFF7E7780100200001002080B590B004
:10141C0000AF07F1180328220021184602F070FCD7
:10142C003B1D00221A605A609A60DA601A6102232E
:10143C00BB610123BB621023FB6200237B6307F1BA
:10144C001803184601F048FB0346002B01D000F0AE
:10145C0065F90F237B600023BB600023FB60002336
:10146C003B6100237B613B1D0021184601F0B6FD5A
:10147C000346002B01D000F051F900BF4037BD46A8
:10148C0080BD000080B500AF124B134A1A60114B9F
:10149C00124A5A600F4B00229A600E4B0022DA60FF
:1014AC000C4B4FF480421A610A4B00225A61094BD3
:1014BC0000229A61074B0022DA61064B00221A6265
:1014CC00044800F06DFE0346002B01D000F026F915
:1014DC0000BF80BD2401002000540040A086010004
:1014EC0080B586B000AF07F1080300221A605A607D
:1014FC009A60DA603B4600221A605A601D4B4FF02E
:10150C0080421A601B4B41F63F725A60194B002205
:10151C009A60184B0922DA60164B00221A61154B9F
:10152C0000229A61134801F0E7FE0346002B01D01C
:10153C0000F0F4F84FF48053BB6007F10803194630
:10154C000C4802F06BF80346002B01D000F0E6F8D3
:10155C0000233B6000237B603B461946054802F0A4
:10156C004DFA0346002B01D000F0D8F800BF183715
:10157C00BD4680BD7801002080B500AF114B124AEA
:10158C001A60104B4FF4E1325A600E4B00229A60F5
:10159C000C4B0022DA600B4B00221A61094B0C2217
:1015AC005A61084B00229A61064B0022DA61054809
:1015BC0002F094FA0346002B01D000F0AFF800BF04
:1015CC0080BD00BFC00100200044004080B588B041
:1015DC0000AF07F1100300221A605A609A60DA60BB
:1015EC00434B9B69424A43F010039361404B9B6908
:1015FC0003F01003FB60FB683D4B9B693C4A43F0D6
:10160C00040393613A4B9B6903F00403BB60BB6812
:10161C00374B9B69364A43F008039361344B9B6903
:10162C0003F008037B607B6800224FF4487131485B
:10163C0000F085FD00224FF48F612F4800F07FFDF4
:10164C0000224FF420712D4800F079FD4FF4005327
:10165C003B612B4B7B610023BB6107F110031946E7
:10166C00264800F0D1FB13233B6100237B6101234F
:10167C00BB6107F1100319461E4800F0C5FB4FF47F
:10168C0048733B6101237B610023BB610223FB6137
:10169C0007F110031946174800F0B6FB4FF48F639F
:1016AC003B6101237B610023BB610223FB6107F1DA
:1016BC0010031946104800F0A7FB4FF420733B6150
:1016CC0001237B610023BB610223FB6107F1100343
:1016DC0019460A4800F098FB00220021282000F04F
:1016EC005CFB282000F075FB00BF2037BD4680BD99
:1016FC000010024000080140000C014000100140A5
:10170C000000111080B582B000AF786000F030F8A6
:10171C00FEF75EFD00BF0837BD4680BD80B400AF4C
:10172C0072B600BF00BFFDE780B483B000AF786035
:10173C0039607B68002B11DB7B68092B0EDC0A4BB4
:10174C001B683A6892FBF3F208497B6841F8332036
:10175C00064A7B68DB00134400225A6000BF0C373A
:10176C00BD4680BC704700BF8400002008020020EA
:10177C0080B483B000AF00237B601DE0134A7B680C
:10178C0052F83330002B14DD104A7B6852F833309A
:10179C005A1E0E497B6841F833200C4A7B6852F87C
:1017AC003330002B05DC094A7B68DB001344012233
:1017BC005A607B6801337B607B68092BDEDD00BFE0
:1017CC0000BF0C37BD4680BC704700BF080200202C
:1017DC0080B485B000AF154B9B69144A43F00103EC
:1017EC009361124B9B6903F00103BB60BB680F4B09
:1017FC00DB690E4A43F08053D3610C4BDB6903F079
:10180C0080537B607B680A4B5B68FB60FB6823F052
:10181C00E063FB60FB6843F00073FB60044AFB6809
:10182C00536000BF1437BD4680BC704700100240A7
:10183C000000014080B58AB000AF786007F1140356
:10184C0000221A605A609A60DA607B681B681D4A35
:10185C00934232D11C4B9B691B4A43F008039361A2
:10186C00194B9B6903F008033B613B694FF44073D0
:10187C007B611223BB6103233B6207F114031946FE
:10188C00124800F0C1FA124B5B687B627B6A43F032
:10189C00E0637B627B6A43F002037B620C4A7B6AE7
:1018AC005360094BDB69084A43F40013D361064BC0
:1018BC00DB6903F40013FB60FB6800BF2837BD46EF
:1018CC0080BD00BF0054004000100240000C0140DD
:1018DC000000014080B584B000AF78607B681B6865
:1018EC00B3F1804F13D10C4BDB690B4A43F001036E
:1018FC00D361094BDB6903F00103FB60FB68002239
:10190C0000211C2000F049FA1C2000F062FA00BFF4
:10191C001037BD4680BD00BF0010024080B588B0B6
:10192C0000AF786007F1100300221A605A609A60C9
:10193C00DA607B681B681B4A93422FD11A4BDB6918
:10194C00194A43F40033D361174BDB6903F40033BA
:10195C00FB60FB68144B9B69134A43F004039361CF
:10196C00114B9B6903F00403BB60BB6804233B6110
:10197C0002237B610323FB6107F1100319460B481B
:10198C0000F042FA08233B6100237B610023BB611A
:10199C0007F110031946054800F036FA00BF20374E
:1019AC00BD4680BD004400400010024000080140CC
:1019BC0080B400AF00BFFDE780B400AF00BFFDE70F
:1019CC0080B400AF00BFFDE780B400AF00BFFDE7FF
:1019DC0080B400AF00BFFDE780B400AF00BFBD46D0
:1019EC0080BC704780B400AF00BFBD4680BC704760
:1019FC0080B400AF00BFBD4680BC704780B500AF5F
:101A0C0000F0B4F800BF80BD80B500AF024801F013
:101A1C0015FD00BF80BD00BF7801002080B586B0E9
:101A2C0000AF7860144A154BD31A7B617B693B611C
:101A3C00134B1B68002B02D1114B124A1A60104B2E
:101A4C001A687B6813443A699A4207D202F060F92B
:101A5C0003460C221A604FF0FF3309E0084B1B6859
:101A6C00FB60074B1A687B681344054A1360FB68DC
:101A7C0018461837BD4680BD0050002000040000F9
:101A8C0058020020A803002080B400AF00BFBD4660
:101A9C0080BC7047FFF7F8FF0B480C490C4A002339
:101AAC0002E0D458C4500433C4188C42F9D3094A08
:101ABC00094C002301E013600432A242FBD302F074
:101ACC002DF9FFF77FFC704700000020E400002098
:101ADC00B4460008E4000020A8030020FEE7000044
:101AEC0080B500AF084B1B68074A43F01003136026
:101AFC00032000F047F90F2000F008F8FFF768FE0C
:101B0C000023184680BD00BF0020024080B582B083
:101B1C0000AF7860124B1A68124B1B7819464FF4C1
:101B2C007A73B3FBF1F3B2FBF3F3184600F05FF9F1
:101B3C000346002B01D001230EE07B680F2B0AD843
:101B4C00002279684FF0FF3000F027F9064A7B68D5
:101B5C001360002300E0012318460837BD4680BD02
:101B6C0088000020900000208C00002080B400AF82
:101B7C00054B1B781A46054B1B681344034A13602C
:101B8C0000BFBD4680BC7047900000205C02002066
:101B9C0080B400AF024B1B681846BD4680BC704732
:101BAC005C02002080B584B000AF7860FFF7F0FFD6
:101BBC00B8607B68FB60FB68B3F1FF3F05D00A4B54
:101BCC001B781A46FB681344FB6000BFFFF7E0FF6D
:101BDC000246BB68D31AFA689A42F7D800BF00BF16
:101BEC001037BD4680BD00BF9000002080B485B08A
:101BFC0000AF78607B6803F00703FB600C4BDB687D
:101C0C00BB60BA684FF6FF031340BB60FB681A0257
:101C1C00BB68134343F0BF6343F40033BB60044A17
:101C2C00BB68D36000BF1437BD4680BC704700BF93
:101C3C0000ED00E080B400AF044BDB681B0A03F03E
:101C4C0007031846BD4680BC704700BF00ED00E09E
:101C5C0080B483B000AF0346FB7197F90730002BBB
:101C6C000BDBFB7903F01F02064997F907305B0980
:101C7C00012000FA02F241F8232000BF0C37BD46C8
:101C8C0080BC704700E100E080B483B000AF034635
:101C9C003960FB7197F90730002B0ADB3B68DAB22D
:101CAC000C4997F907301201D2B20B4483F8002388
:101CBC000AE03B68DAB20849FB7903F00F03043BF6
:101CCC001201D2B20B441A7600BF0C37BD4680BC51
:101CDC00704700BF00E100E000ED00E080B489B087
:101CEC0000AFF860B9607A60FB6803F00703FB6132
:101CFC00FB69C3F10703042B28BF0423BB61FB69F9
:101D0C000433062B02D9FB69033B00E000237B6103
:101D1C004FF0FF32BB6902FA03F3DA43BB681A4097
:101D2C007B699A404FF0FF317B6901FA03F3D94389
:101D3C007B680B40134318462437BD4680BC704764
:101D4C0080B582B000AF78607B68013BB3F1807FD7
:101D5C0001D301230FE00A4A7B68013B53600F213A
:101D6C004FF0FF30FFF790FF054B00229A60044BB9
:101D7C0007221A60002318460837BD4680BD00BFF5
:101D8C0010E000E080B582B000AF78607868FFF7B3
:101D9C002DFF00BF0837BD4680BD80B586B000AFB3
:101DAC000346B9607A60FB7300237B61FFF742FF47
:101DBC0078617A68B9687869FFF790FF024697F9FD
:101DCC000F3011461846FFF75FFF00BF1837BD46AE
:101DDC0080BD80B582B000AF0346FB7197F9073028
:101DEC001846FFF735FF00BF0837BD4680BD80B5EC
:101DFC0082B000AF78607868FFF7A2FF0346184600
:101E0C000837BD4680BD000080B48BB000AF786051
:101E1C00396000237B6200233B6269E101227B6A0B
:101E2C0002FA03F3FB613B681B68FA691340BB6160
:101E3C00BA69FB699A4240F058813B685B689A4AE0
:101E4C0093425ED0984A934275D8984A934258D0A0
:101E5C00964A93426FD8964A934252D0944A9342F0
:101E6C0069D8944A93424CD0924A934263D8924A8E
:101E7C00934246D0904A93425DD8122B2AD8122B0B
:101E8C0059D801A252F823F00F1F0008E91E0008D0
:101E9C00FB1E00083D1F0008431F0008431F0008DD
:101EAC00431F0008431F0008431F0008431F00087E
:101EBC00431F0008431F0008431F0008431F00086E
:101ECC00431F0008431F0008431F0008F11E0008B1
:101EDC00051F0008794A934213D02CE03B68DB685D
:101EEC003B6229E03B68DB6804333B6224E03B68DF
:101EFC00DB6808333B621FE03B68DB680C333B62FA
:101F0C001AE03B689B68002B02D104233B6213E070
:101F1C003B689B68012B05D108233B627B68FA69FF
:101F2C001A6109E008233B627B68FA695A6103E095
:101F3C0000233B6200E000BFBB69FF2B01D87B682C
:101F4C0001E07B6804337B61BB69FF2B02D87B6AA1
:101F5C009B0002E07B6A083B9B003B617B691A6833
:101F6C000F213B6901FA03F3DB431A40396A3B69E1
:101F7C0001FA03F31A437B691A603B685B6803F050
:101F8C008053002B00F0B1804D4B9B694C4A43F0C1
:101F9C00010393614A4B9B6903F00103BB60BB686F
:101FAC00484A7B6A9B08023352F82330FB607B6AF9
:101FBC0003F003039B000F2202FA03F3DB43FA68DE
:101FCC001340FB607B68404A934213D07B683F4AC6
:101FDC0093420DD07B683E4A934207D07B683D4AC2
:101FEC00934201D1032306E0042304E0022302E020
:101FFC00012300E000237A6A02F00302920093406E
:10200C00FA681343FB602F497B6A9B080233FA681A
:10201C0041F823203B685B6803F48013002B06D047
:10202C002D4B9A682C49BB6913438B6006E02A4BF5
:10203C009A68BB69DB43284913408B603B685B683B
:10204C0003F40013002B06D0234BDA682249BB693A
:10205C001343CB6006E0204BDA68BB69DB431E49B7
:10206C001340CB603B685B6803F40033002B06D055
:10207C00194B5A681849BB6913434B6006E0164B61
:10208C005A68BB69DB43144913404B603B685B687F
:10209C0003F48033002B21D00F4B1A680E49BB6917
:1020AC0013430B6021E000BF000032100000311020
:1020BC00000022100000211000001210000011106E
:1020CC00001002400000014000080140000C0140DB
:1020DC000010014000140140000401400B4B1A6831
:1020EC00BB69DB43094913400B607B6A01337B629C
:1020FC003B681A687B6A22FA03F3002B7FF48EAEDE
:10210C0000BF00BF2C37BD4680BC704700040140A7
:10211C0080B485B000AF78600B467B807B689A6892
:10212C007B881340002B02D00123FB7301E00023BA
:10213C00FB73FB7B18461437BD4680BC704780B4DC
:10214C0083B000AF78600B467B8013467B707B7846
:10215C00002B03D07A887B681A6103E07B881A0411
:10216C007B681A6100BF0C37BD4680BC704780B4D9
:10217C0085B000AF78600B467B807B68DB68FB60CA
:10218C007A88FB6813401A04FB68D9437B880B40A0
:10219C001A437B681A6100BF1437BD4680BC704778
:1021AC0080B584B000AF78607B68002B01D101232F
:1021BC002BE17B6893F83D30DBB2002B06D17B68BA
:1021CC00002283F83C207868FFF734FB7B682422DC
:1021DC0083F83D207B681B681A687B681B6822F0BB
:1021EC0001021A607B681B681A687B681B6842F4E2
:1021FC0000421A607B681B681A687B681B6822F4B3
:10220C0000421A6001F032F8F8607B685B68814A22
:10221C00934207D8FB68804A934294BF0123002362
:10222C00DBB206E0FB687D4A934294BF0123002396
:10223C00DBB2002B01D00123E7E0FB68784AA2FB5C
:10224C0003239B0CBB607B681B685B6823F03F011E
:10225C007B681B68BA680A435A607B681B681B6AF8
:10226C0023F03F017B685B686A4A934202D8BB68E3
:10227C00013309E0BB684FF4967202FB03F3694A21
:10228C00A2FB03239B0901337A6812680B43136288
:10229C007B681B68DB6923F44F4222F0FF027B68EA
:1022AC005B685C498B4219D8FB68591E7B685B687C
:1022BC005B00B1FBF3F3591C40F6FC730B40002B95
:1022CC000AD0FB68591E7B685B685B00B1FBF3F3BB
:1022DC000133C3F30B0351E004234FE07B689B688D
:1022EC00002B11D1FB68581E7B6859680B465B00AC
:1022FC000B44B0FBF3F30133C3F30B03002B0CBF04
:10230C0001230023DBB212E0FB68581E7B6859687E
:10231C000B469B000B4499000B44B0FBF3F30133C9
:10232C00C3F30B03002B0CBF01230023DBB2002BE8
:10233C0001D0012322E07B689B68002B0ED1FB6847
:10234C00581E7B6859680B465B000B44B0FBF3F3DB
:10235C000133C3F30B0343F400430FE0FB68581E37
:10236C007B6859680B469B000B4499000B44B0FBEF
:10237C00F3F30133C3F30B0343F440437968096867
:10238C001343CB617B681B681B6823F0C0017B681F
:10239C00DA697B681B6A1A437B681B680A431A60FC
:1023AC007B681B689B6823F4034323F0FF037A6864
:1023BC0011697A68D26811437A6812680B4393608A
:1023CC007B681B68DB6823F0FF017B685A697B68BC
:1023DC009B691A437B681B680A43DA607B681B683D
:1023EC001A687B681B6842F001021A607B68002245
:1023FC001A647B68202283F83D207B6800221A63D4
:10240C007B68002283F83E20002318461037BD4617
:10241C0080BD00BFA08601007F841E00FF083D0028
:10242C0083DE1B43D34D621080B588B002AFF860D9
:10243C007A601A460B467B8113463B81FFF7A8FB5B
:10244C007861FB6893F83D30DBB2202B40F0E080E4
:10245C007B690093192301227049F86800F064F934
:10246C000346002B01D00223D3E0FB6893F83C30E9
:10247C00012B01D10223CCE0FB68012283F83C2024
:10248C00FB681B681B6803F00103012B07D0FB687A
:10249C001B681A68FB681B6842F001021A60FB6833
:1024AC001B681A68FB681B6822F400621A60FB68E0
:1024BC00212283F83D20FB68102283F83E20FB6824
:1024CC0000221A64FB687A685A62FB683A895A855A
:1024DC00FB685B8D9AB2FB681A85FB68504ADA621E
:1024EC0079897B693A6AF86800F09CF80346002BFE
:1024FC0001D001238DE000233B61FB681B685B6905
:10250C003B61FB681B689B693B613B6966E07A69D0
:10251C00396AF86800F022FA0346002B0DD0FB68EC
:10252C001B6C042B07D1FB681B681A68FB681B68C3
:10253C0042F400721A6001236BE0FB685B6A1A7844
:10254C00FB681B681A61FB685B6A5A1CFB685A6261
:10255C00FB685B8D9BB2013B9AB2FB685A85FB68AA
:10256C001B8D013B9AB2FB681A85FB681B685B6983
:10257C0003F00403042B1BD1FB681B8D002B17D01D
:10258C00FB685B6A1A78FB681B681A61FB685B6AFC
:10259C005A1CFB685A62FB685B8D9BB2013B9AB27A
:1025AC00FB685A85FB681B8D013B9AB2FB681A8548
:1025BC007A69396AF86800F019FA0346002B0DD0D5
:1025CC00FB681B6C042B07D1FB681B681A68FB6843
:1025DC001B6842F400721A6001231AE0FB681B8D21
:1025EC00002B94D1FB681B681A68FB681B6842F4CB
:1025FC0000721A60FB68202283F83D20FB680022E1
:10260C0083F83E20FB68002283F83C20002300E086
:10261C00022318461837BD4680BD00BF02001000CB
:10262C000000FFFF80B588B002AFF8607A603B60B5
:10263C000B467B81FB68DB6A7B617B69082B06D0D0
:10264C007B69012B03D07B6913F5803F08D1FB68B4
:10265C001B681A68FB681B6842F480721A600BE0F6
:10266C00FB681B6B122B07D1FB681B681A68FB6895
:10267C001B6842F480721A603B6800937B680022EE
:10268C004FF00111F86800F04FF80346002B0DD005
:10269C00FB681B681B6803F48073B3F5807F03D160
:1026AC00FB684FF400721A64032335E0FB681B6966
:1026BC00B3F5804F08D17B89DBB21A46FB681B68E7
:1026CC0002F0FE021A611BE07B89DB11DBB203F026
:1026DC000603DBB263F00F03DAB2FB681B681A6106
:1026EC003B687A680E49F86800F098F80346002BAE
:1026FC0001D0012310E07B89DAB2FB681B681A61F8
:10270C003B687A680749F86800F088F80346002BA4
:10271C0001D0012300E0002318461837BD4680BDC8
:10272C00080001000200010080B584B000AFF86021
:10273C00B9603B601346FB7148E03B68B3F1FF3F67
:10274C0044D0FFF725FA0246BB69D31A3A689A427D
:10275C0002D33B68002B39D1BB681B0CDBB2012BBD
:10276C000DD1FB681B685B69DA43BB6813409BB2F5
:10277C00002B0CBF01230023DBB21A460CE0FB68D4
:10278C001B689B69DA43BB6813409BB2002B0CBFE0
:10279C0001230023DBB21A46FB799A4216D1FB685F
:1027AC0000221A63FB68202283F83D20FB6800227C
:1027BC0083F83E20FB681B6C43F02002FB681A6414
:1027CC00FB68002283F83C20012323E0BB681B0C30
:1027DC00DBB2012B0DD1FB681B685B69DA43BB686C
:1027EC0013409BB2002B0CBF01230023DBB21A4613
:1027FC000CE0FB681B689B69DA43BB6813409BB217
:10280C00002B0CBF01230023DBB21A46FB799A4242
:10281C0093D0002318461037BD4680BD80B584B0D8
:10282C0000AFF860B9607A603B6071E0FB681B68D0
:10283C005B6903F48063B3F5806F23D1FB681B687D
:10284C001A68FB681B6842F400721A60FB681B680C
:10285C006FF480625A61FB6800221A63FB682022C5
:10286C0083F83D20FB68002283F83E20FB681B6C3C
:10287C0043F00402FB681A64FB68002283F83C20D6
:10288C00012367E07B68B3F1FF3F41D0FFF780F98C
:10289C0002463B68D31A7A689A4202D37B68002BB3
:1028AC0036D1BB681B0CDBB2012B0CD1FB681B684F
:1028BC005B69DA43BB6813409BB2002B14BF012346
:1028CC000023DBB20BE0FB681B689B69DA43BB6837
:1028DC0013409BB2002B14BF01230023DBB2002B4F
:1028EC0016D0FB6800221A63FB68202283F83D2077
:1028FC00FB68002283F83E20FB681B6C43F020022F
:10290C00FB681A64FB68002283F83C20012321E059
:10291C00BB681B0CDBB2012B0CD1FB681B685B6921
:10292C00DA43BB6813409BB2002B14BF0123002376
:10293C00DBB20BE0FB681B689B69DA43BB68134096
:10294C009BB2002B14BF01230023DBB2002B7FF4BE
:10295C006DAF002318461037BD4680BD80B584B0DE
:10296C0000AFF860B9607A6034E0F86800F086F87F
:10297C000346002B01D0012334E0BB68B3F1FF3FC9
:10298C0028D0FFF705F902467B68D31ABA689A4239
:10299C0002D3BB68002B1DD1FB681B685B6903F07D
:1029AC008003802B16D0FB6800221A63FB68202260
:1029BC0083F83D20FB68002283F83E20FB681B6CEB
:1029CC0043F02002FB681A64FB68002283F83C2069
:1029DC00012307E0FB681B685B6903F08003802B15
:1029EC00C3D1002318461037BD4680BD80B584B0D6
:1029FC0000AFF860B9607A6034E0F86800F03EF837
:102A0C000346002B01D0012334E0BB68B3F1FF3F38
:102A1C0028D0FFF7BDF802467B68D31ABA689A42F1
:102A2C0002D3BB68002B1DD1FB681B685B6903F0EC
:102A3C000403042B16D0FB6800221A63FB682022C7
:102A4C0083F83D20FB68002283F83E20FB681B6C5A
:102A5C0043F02002FB681A64FB68002283F83C20D8
:102A6C00012307E0FB681B685B6903F00403042B7C
:102A7C00C3D1002318461037BD4680BD80B483B047
:102A8C0000AF78607B681B685B6903F48063B3F507
:102A9C00806F1BD17B681B686FF480625A617B6806
:102AAC0000221A637B68202283F83D207B68002279
:102ABC0083F83E207B681B6C43F004027B681A642D
:102ACC007B68002283F83C20012300E00023184699
:102ADC000C37BD4680BC704780B586B000AF7860BF
:102AEC007B68002B01D1012372E27B681B6803F029
:102AFC000103002B00F08780924B5B6803F00C0302
:102B0C00042B0CD08F4B5B6803F00C03082B12D1F9
:102B1C008C4B5B6803F48033B3F5803F0BD1894B4E
:102B2C001B6803F40033002B6CD07B685B68002BB4
:102B3C0068D101234CE27B685B68B3F5803F06D11A
:102B4C00804B1B687F4A43F4803313602EE07B6814
:102B5C005B68002B0CD17B4B1B687A4A23F48033C7
:102B6C001360784B1B68774A23F4802313601DE0B5
:102B7C007B685B68B3F5A02F0CD1724B1B68714A54
:102B8C0043F4802313606F4B1B686E4A43F480330D
:102B9C0013600BE06B4B1B686A4A23F480331360A1
:102BAC00684B1B68674A23F4802313607B685B685F
:102BBC00002B13D0FEF7ECFF386108E0FEF7E8FFBE
:102BCC0002463B69D31A642B01D9032300E25D4B07
:102BDC001B6803F40033002BF0D014E0FEF7D8FF91
:102BEC00386108E0FEF7D4FF02463B69D31A642B28
:102BFC0001D90323ECE1534B1B6803F40033002B86
:102C0C00F0D100E000BF7B681B6803F00203002BCF
:102C1C0063D04C4B5B6803F00C03002B0BD0494B7F
:102C2C005B6803F00C03082B1CD1464B5B6803F468
:102C3C008033002B16D1434B1B6803F00203002B8F
:102C4C0005D07B681B69012B01D00123C0E13D4BF2
:102C5C001B6823F0F8027B685B69DB00394913437E
:102C6C000B603AE07B681B69002B20D0364B0122AD
:102C7C001A60FEF78DFF386108E0FEF789FF024607
:102C8C003B69D31A022B01D90323A1E12D4B1B68FD
:102C9C0003F00203002BF0D02A4B1B6823F0F80240
:102CAC007B685B69DB00274913430B6015E0264BFF
:102CBC0000221A60FEF76CFF386108E0FEF768FF2F
:102CCC0002463B69D31A022B01D9032380E11D4B29
:102CDC001B6803F00203002BF0D17B681B6803F028
:102CEC000803002B3AD07B689B69002B19D0174B3B
:102CFC0001221A60FEF74CFF386108E0FEF748FF2E
:102D0C0002463B69D31A022B01D9032360E10D4B18
:102D1C005B6A03F00203002BF0D0012000F0CEFA26
:102D2C001CE00A4B00221A60FEF732FF38610FE0FC
:102D3C00FEF72EFF02463B69D31A022B08D9032358
:102D4C0046E100BF001002400000424280044242B3
:102D5C00924B5B6A03F00203002BE9D17B681B6882
:102D6C0003F00403002B00F0A6800023FB758B4BB3
:102D7C00DB6903F08053002B0DD1884BDB69874A4C
:102D8C0043F08053D361854BDB6903F08053BB6008
:102D9C00BB680123FB75824B1B6803F48073002B0B
:102DAC0018D17F4B1B687E4A43F480731360FEF787
:102DBC00EFFE386108E0FEF7EBFE02463B69D31AE2
:102DCC00642B01D9032303E1754B1B6803F4807357
:102DDC00002BF0D07B68DB68012B06D16F4B1B6A94
:102DEC006E4A43F0010313622DE07B68DB68002B15
:102DFC000CD16A4B1B6A694A23F001031362674BBF
:102E0C001B6A664A23F0040313621CE07B68DB68D0
:102E1C00052B0CD1614B1B6A604A43F0040313620F
:102E2C005E4B1B6A5D4A43F0010313620BE05B4B84
:102E3C001B6A5A4A23F001031362584B1B6A574A08
:102E4C0023F0040313627B68DB68002B15D0FEF7BC
:102E5C009FFE38610AE0FEF79BFE02463B69D31ADF
:102E6C0041F28832934201D90323B1E04B4B1B6AE8
:102E7C0003F00203002BEED014E0FEF789FE38615C
:102E8C000AE0FEF785FE02463B69D31A41F288320E
:102E9C00934201D903239BE0404B1B6A03F00203CE
:102EAC00002BEED1FB7D012B05D13C4BDB693B4A62
:102EBC0023F08053D3617B68DB69002B00F08780A3
:102ECC00364B5B6803F00C03082B61D07B68DB6925
:102EDC00022B46D1334B00221A60FEF759FE3861A3
:102EEC0008E0FEF755FE02463B69D31A022B01D9C6
:102EFC0003236DE0294B1B6803F00073002BF0D10A
:102F0C007B681B6AB3F5803F08D1244B5B6823F4C4
:102F1C0000327B689B68214913434B601F4B5B68F5
:102F2C0023F474127B68196A7B685B6A0B431B4938
:102F3C0013434B601B4B01221A60FEF729FE3861CC
:102F4C0008E0FEF725FE02463B69D31A022B01D995
:102F5C0003233DE0114B1B6803F00073002BF0D0F2
:102F6C0035E0104B00221A60FEF712FE386108E0C3
:102F7C00FEF70EFE02463B69D31A022B01D903233E
:102F8C0026E0064B1B6803F00073002BF0D11EE00B
:102F9C007B68DB69012B07D1012319E0001002408B
:102FAC0000700040600042420B4B5B68FB60FB68AA
:102FBC0003F480327B681B6A9A4206D1FB6803F4E7
:102FCC0070127B685B6A9A4201D0012300E00023F7
:102FDC0018461837BD4680BD0010024080B584B03D
:102FEC0000AF786039607B68002B01D10123D0E001
:102FFC006A4B1B6803F007033A689A4210D9674B77
:10300C001B6823F0070265493B6813430B60634B55
:10301C001B6803F007033A689A4201D00123B8E019
:10302C007B681B6803F00203002B20D07B681B68B5
:10303C0003F00403002B05D0594B5B68584A43F44A
:10304C00E06353607B681B6803F00803002B05D01A
:10305C00534B5B68524A43F460535360504B5B686C
:10306C0023F0F0027B689B684D4913434B607B68EF
:10307C001B6803F00103002B40D07B685B68012BBD
:10308C0007D1474B1B6803F40033002B15D10123E8
:10309C007FE07B685B68022B07D1414B1B6803F018
:1030AC000073002B09D1012373E03D4B1B6803F027
:1030BC000203002B01D101236BE0394B5B6823F039
:1030CC0003027B685B68364913434B60FEF760FD77
:1030DC00F8600AE0FEF75CFD0246FB68D31A41F289
:1030EC008832934201D9032353E02D4B5B6803F0E4
:1030FC000C027B685B689B009A42EBD1274B1B68E8
:10310C0003F007033A689A4210D2244B1B6823F051
:10311C00070222493B6813430B60204B1B6803F0EA
:10312C0007033A689A4201D0012332E07B681B689E
:10313C0003F00403002B08D0194B5B6823F4E06206
:10314C007B68DB68164913434B607B681B6803F094
:10315C000803002B09D0124B5B6823F460527B6888
:10316C001B69DB000E4913434B6000F021F802464B
:10317C000B4B5B681B0903F00F030A49CB5C22FA6B
:10318C0003F3094A1360094B1B681846FEF7BEFC93
:10319C00002318461037BD4680BD00BF00200240FA
:1031AC00001002404C460008880000208C000020D3
:1031BC0080B487B000AF0023FB600023BB6000230A
:1031CC007B6100237B6000233B611E4B5B68FB60D3
:1031DC00FB6803F00C03042B02D0082B03D027E070
:1031EC00194B3B6127E0FB689B0C03F00F03174A5C
:1031FC00D35C7B60FB6803F48033002B10D0114B45
:10320C005B685B0C03F00103114AD35CBB607B6809
:10321C000D4A03FB02F2BB68B2FBF3F37B6104E0E3
:10322C007B680C4A02FB03F37B617B693B6102E028
:10323C00054B3B6100BF3B6918461C37BD4680BC43
:10324C00704700BF0010024000127A00644600086C
:10325C007446000800093D0080B400AF024B1B68A7
:10326C001846BD4680BC70478800002080B500AF72
:10327C00FFF7F2FF0246054B5B681B0A03F00703DE
:10328C000349CB5C22FA03F3184680BD00100240C0
:10329C005C46000880B500AFFFF7DEFF0246054B29
:1032AC005B68DB0A03F007030349CB5C22FA03F3E8
:1032BC00184680BD001002405C46000880B485B002
:1032CC0000AF78600A4B1B680A4AA2FB03235B0A17
:1032DC007A6802FB03F3FB6000BFFB685A1EFA60BE
:1032EC00002BF9D100BF00BF1437BD4680BC70471E
:1032FC0088000020D34D621080B582B000AF78609A
:10330C007B68002B01D1012341E07B6893F83D30B1
:10331C00DBB2002B06D17B68002283F83C20786856
:10332C00FEF7D8FA7B68022283F83D207B681A6886
:10333C007B6804331946104600F05CFA7B68012266
:10334C0083F846207B68012283F83E207B680122AB
:10335C0083F83F207B68012283F840207B680122A0
:10336C0083F841207B68012283F842207B6801228C
:10337C0083F843207B68012283F844207B68012278
:10338C0083F845207B68012283F83D2000231846F2
:10339C000837BD4680BD000080B485B000AF7860B2
:1033AC007B6893F83D30DBB2012B01D001233AE06E
:1033BC007B68022283F83D207B681B68DA687B6897
:1033CC001B6842F00102DA607B681B68184A934262
:1033DC000ED07B681B68B3F1804F09D07B681B68EB
:1033EC00144A934204D07B681B68134A934211D150
:1033FC007B681B689B6803F00703FB60FB68062B6C
:10340C0010D07B681B681A687B681B6842F001024D
:10341C001A6007E07B681B681A687B681B6842F0BF
:10342C0001021A60002318461437BD4680BC704751
:10343C00002C0140000400400008004080B584B01E
:10344C0000AF78607B681B68DB68FB607B681B687F
:10345C001B69BB60BB6803F00203002B20D0FB6828
:10346C0003F00203002B1BD07B681B686FF0020279
:10347C001A617B6801221A777B681B689B6903F0D1
:10348C000303002B03D0786800F098F905E0786806
:10349C0000F08BF9786800F09AF97B6800221A77B3
:1034AC00BB6803F00403002B20D0FB6803F004037B
:1034BC00002B1BD07B681B686FF004021A617B68C1
:1034CC0002221A777B681B689B6903F44073002BFC
:1034DC0003D0786800F072F905E0786800F065F9BF
:1034EC00786800F074F97B6800221A77BB6803F0E7
:1034FC000803002B20D0FB6803F00803002B1BD023
:10350C007B681B686FF008021A617B6804221A77CB
:10351C007B681B68DB6903F00303002B03D078681E
:10352C0000F04CF905E0786800F03FF9786800F09D
:10353C004EF97B6800221A77BB6803F01003002B4E
:10354C0020D0FB6803F01003002B1BD07B681B689A
:10355C006FF010021A617B6808221A777B681B686F
:10356C00DB6903F44073002B03D0786800F026F974
:10357C0005E0786800F019F9786800F028F97B68A4
:10358C0000221A77BB6803F00103002B0CD0FB68F8
:10359C0003F00103002B07D07B681B686FF001025E
:1035AC001A617868FEF7AEF8BB6803F08003002B55
:1035BC000CD0FB6803F08003002B07D07B681B68E2
:1035CC006FF080021A61786800F07FFABB6803F034
:1035DC004003002B0CD0FB6803F04003002B07D0FA
:1035EC007B681B686FF040021A61786800F0F8F88D
:1035FC00BB6803F02003002B0CD0FB6803F0200306
:10360C00002B07D07B681B686FF020021A6178686A
:10361C0000F052FA00BF1037BD4680BD80B584B0B3
:10362C0000AF786039600023FB737B6893F83C3003
:10363C00012B01D10223B4E07B68012283F83C20EA
:10364C007B68022283F83D207B681B689B68BB600B
:10365C00BB6823F07703BB60BB6823F47F43BB607C
:10366C007B681B68BA689A603B681B68B3F5005F9F
:10367C003ED0B3F5005F00F28780B3F5805F00F0B9
:10368C008680B3F5805F7FD8702B1AD0702B7BD8D7
:10369C00602B50D0602B77D8502B3CD0502B73D84C
:1036AC00402B58D0402B6FD8302B64D0302B6BD89C
:1036BC00202B60D0202B67D8002B5CD0102B5AD03D
:1036CC0062E07B6818683B6899683B685A683B689D
:1036DC00DB6800F074F97B681B689B68BB60BB6897
:1036EC0043F07703BB607B681B68BA689A604FE055
:1036FC007B6818683B6899683B685A683B68DB686C
:10370C0000F05DF97B681B689A687B681B6842F463
:10371C0080429A603CE07B6818683B6859683B685B
:10372C00DB681A4600F0D4F87B681B6850211846F9
:10373C0000F02BF92CE07B6818683B6859683B68F3
:10374C00DB681A4600F0F2F87B681B6860211846AB
:10375C0000F01BF91CE07B6818683B6859683B68F3
:10376C00DB681A4600F0B4F87B681B6840211846E9
:10377C0000F00BF90CE07B681A683B681B68194673
:10378C00104600F002F903E00123FB7300E000BFD8
:10379C007B68012283F83D207B68002283F83C2063
:1037AC00FB7B18461037BD4680BD80B483B000AF9C
:1037BC00786000BF0C37BD4680BC704780B483B0C6
:1037CC0000AF786000BF0C37BD4680BC704780B43A
:1037DC0083B000AF786000BF0C37BD4680BC70472B
:1037EC0080B483B000AF786000BF0C37BD4680BC9E
:1037FC007047000080B485B000AF786039607B689A
:10380C001B68FB607B682F4A93420BD07B68B3F13B
:10381C00804F07D07B682C4A934203D07B682B4A9D
:10382C00934208D1FB6823F07003FB603B685B6834
:10383C00FA681343FB607B68224A93420BD07B6887
:10384C00B3F1804F07D07B681F4A934203D07B684B
:10385C001E4A934208D1FB6823F44073FB603B681B
:10386C00DB68FA681343FB60FB6823F080023B685B
:10387C005B691343FB607B68FA681A603B689A6863
:10388C007B68DA623B681A687B689A627B680D4ACF
:10389C00934203D13B681A697B681A637B680122E7
:1038AC005A617B681B6903F00103002B05D07B6810
:1038BC001B6923F001027B681A6100BF1437BD46F7
:1038CC0080BC7047002C0140000400400008004000
:1038DC0080B487B000AFF860B9607A60FB681B6A8F
:1038EC007B61FB681B6A23F00102FB681A62FB68B0
:1038FC009B693B613B6923F0F0033B617B681B01D7
:10390C003A6913433B617B6923F00A037B617A6953
:10391C00BB6813437B61FB683A699A61FB687A69FF
:10392C001A6200BF1C37BD4680BC704780B487B09C
:10393C0000AFF860B9607A60FB681B6A7B61FB685A
:10394C001B6A23F01002FB681A62FB689B693B61DF
:10395C003B6923F470433B617B681B033A69134357
:10396C003B617B6923F0A0037B61BB681B017A6917
:10397C0013437B61FB683A699A61FB687A691A6246
:10398C0000BF1C37BD4680BC704780B485B000AF0B
:10399C00786039607B689B68FB60FB6823F0700380
:1039AC00FB603A68FB68134343F00703FB607B68DA
:1039BC00FA689A6000BF1437BD4680BC704780B46B
:1039CC0087B000AFF860B9607A603B60FB689B68B9
:1039DC007B617B6923F47F437B613B681A027B68C4
:1039EC001A43BB6813437A6913437B61FB687A699A
:1039FC009A6000BF1C37BD4680BC704780B485B050
:103A0C0000AF786039607B6893F83C30012B01D1B2
:103A1C00022346E07B68012283F83C207B6802226B
:103A2C0083F83D207B681B685B68FB607B681B68C8
:103A3C009B68BB60FB6823F07003FB603B681B68F2
:103A4C00FA681343FB607B681B68FA685A607B68F2
:103A5C001B68164A93420ED07B681B68B3F1804FEB
:103A6C0009D07B681B68124A934204D07B681B68A0
:103A7C00104A93420CD1BB6823F08003BB603B68B7
:103A8C005B68BA681343BB607B681B68BA689A6052
:103A9C007B68012283F83D207B68002283F83C2060
:103AAC00002318461437BD4680BC7047002C0140DB
:103ABC00000400400008004080B483B000AF786080
:103ACC0000BF0C37BD4680BC704780B483B000AFDC
:103ADC00786000BF0C37BD4680BC704780B582B0A3
:103AEC0000AF78607B68002B01D1012342E07B683A
:103AFC0093F84130DBB2002B06D17B68002283F8AF
:103B0C0040207868FDF70AFF7B68242283F8412067
:103B1C007B681B68DA687B681B6822F40052DA60E9
:103B2C00786800F02BF87B681B681A697B681B6847
:103B3C0022F490421A617B681B685A697B681B6887
:103B4C0022F02A025A617B681B68DA687B681B6862
:103B5C0042F40052DA607B6800225A647B682022AF
:103B6C0083F841207B68202283F842207B68002266
:103B7C005A63002318460837BD4680BD80B584B013
:103B8C0000AF78607B681B681B6923F440517B682D
:103B9C00DA687B681B680A431A617B689A687B68E1
:103BAC001B691A437B685B691343BB607B681B68AA
:103BBC00DB6823F4B05323F00C037A681268B968FD
:103BCC000B43D3607B681B685B6923F440717B6893
:103BDC009A697B681B680A435A617B681B682C4A8C
:103BEC00934203D1FFF756FBF86002E0FFF73EFB70
:103BFC00F860FA6813469B0013449A001A447B68D9
:103C0C005B689B00B2FBF3F3224AA2FB03235B0924
:103C1C001901FA6813469B0013449A001A447B68F6
:103C2C005B689B00B2FBF3F21A4BA3FB02035B092C
:103C3C00642000FB03F3D31A1B013233154AA2FB99
:103C4C0003235B0903F0F0031944FA6813469B0045
:103C5C0013449A001A447B685B689B00B2FBF3F236
:103C6C000C4BA3FB02035B09642000FB03F3D31A88
:103C7C001B013233074AA2FB03235B0903F00F023B
:103C8C007B681B680A449A6000BF1037BD4680BD34
:103C9C00003801401F85EB510CB430B5174B0C1E8E
:103CAC001D689DB008DA8B234FF0FF302B601DB0E0
:103CBC00BDE8304002B070474FF40273ADF81430D9
:103CCC000CBF234604F1FF33049307934FF6FF73A5
:103CDC0002900690ADF81630284621AB209A02A926
:103CEC00019300F093F9431CBCBF8B232B60002C79
:103CFC00DDD00022029B1A70D9E700BF940000208F
:103D0C0003460244934200D1704703F8011BF9E7C4
:103D1C00014B1868704700BF9400002070B5002656
:103D2C000C4D0D4C641BA410A64209D100F078FC7C
:103D3C0000260A4D0A4C641BA410A64205D170BD86
:103D4C0055F8043B98470136EEE755F8043B984785
:103D5C000136F2E7AC460008AC460008AC46000859
:103D6C00B04600087047704738B50546002940D06A
:103D7C0051F8043C0C1F002BB8BFE41800F0DEF81F
:103D8C001C4A136833B9636014602846BDE8384098
:103D9C0000F0DAB8A34208D9206821188B4201BF81
:103DAC0019685B6809182160EDE71A465B680BB16E
:103DBC00A342FAD911685018A0420BD120680144D3
:103DCC00501883421160E0D118685B680844106099
:103DDC005360DAE702D90C232B60D6E72068211850
:103DEC008B4201BF19685B680918216063605460DD
:103DFC00CBE738BDA403002070B50F4E0C463168DC
:103E0C00054611B900F0AAFB30602146284600F0A7
:103E1C00A5FB431C03D14FF0FF34204670BDC41CDE
:103E2C0024F00304A042F8D0211A284600F096FB97
:103E3C000130F2D1EFE700BFA00300202DE9F843D9
:103E4C00CD1C25F0030508350C2D38BF0C25002D95
:103E5C00064601DBA94204D90C2333600020BDE8DF
:103E6C00F883DFF8D48000F069F8D8F800301C46ED
:103E7C0044BB29463046FFF7BFFF431C044658D1CC
:103E8C00D8F800402746002F43D1002C4BD0236894
:103E9C003946304604EB030900F060FB814542D102
:103EAC00216830466D1A2946FFF7A6FF01303AD03B
:103EBC0023682B442360D8F800305A6862BBC8F8DA
:103ECC0000700FE02268521B20D40B2A17D96119FD
:103EDC00A342256018BF5960636808BFC8F800107A
:103EEC0062514B60304600F02FF804F10B00231D9B
:103EFC0020F00700C21A1CBF1B1AA350AFE7626860
:103F0C00A3420CBFC8F800205A60EBE72346646854
:103F1C00AEE73C467F68B6E71A465B68A342FBD126
:103F2C0000235360DEE70C233046336000F00CF8BE
:103F3C0094E70560D6E700BFA40300200148FFF713
:103F4C0011BF00BF9C0300200148FFF70CBF00BF4E
:103F5C009C0300202DE9F0471F468E688246BE4226
:103F6C000C4690460B682DD8B1F90C2012F4906FCA
:103F7C0026D06569096905EB4505A3EB010905EB3D
:103F8C00D5757B1C4B446D109D4238BF1D465305A7
:103F9C0027D52946FFF752FF064660B34A462169EA
:103FAC0000F0FAFAA38923F4906343F08003A38111
:103FBC0026614E4426603E466561A5EB0905A56069
:103FCC00BE4200D93E4632464146206800F0ACFA6B
:103FDC000020A3689B1BA360236833442360BDE8C7
:103FEC00F0872A4600F0E6FA06460028E0D1504653
:103FFC002169FFF7B9FE0C23CAF80030A3894FF0F2
:10400C00FF3043F04003A381E9E700002DE9F04FB6
:10401C0098468B8907461B060D4614469DB010D555
:10402C000B6973B94021FFF709FF2860286130B98B
:10403C000C233B604FF0FF301DB0BDE8F08F4023E8
:10404C006B610023099320238DF8293030234FF026
:10405C000109CDF80C80DFF898818DF82A302346C1
:10406C009A4613F8012B0AB1252AF9D1BAEB040BA5
:10407C000BD05B46224629463846FFF76BFF0130D2
:10408C0000F0A780099A5A4409929AF80030002B44
:10409C0000F09F8000234FF0FF32CDE905230AF199
:1040AC00010A049307938DF853301A935446052252
:1040BC0014F8011B4E4800F061FA049AD8B9D006E6
:1040CC0044BF20238DF85330110744BF2B238DF8A8
:1040DC0053309AF800302A2B15D0544600204FF05C
:1040EC000A0C079A214611F8013B303B092B4BD99E
:1040FC00B0B1079214E0A0EB080309FA03F31343E1
:10410C00A2460493D2E7039B191D1B680391002B55
:10411C00BBBF5B4242F0020207930793B8BF049205
:10412C0023782E2B0AD163782A2B32D1039B0234AD
:10413C001A1D1B68039243EAE3730593DFF8B4A0DE
:10414C0003225046217800F019FA38B14022049B22
:10415C00A0EB0A00824013430134049314F8011BB2
:10416C00062225488DF8281000F008FA002836D0D1
:10417C00224B1BBB039B073323F00703083303932A
:10418C00099B334409936AE70C4601200CFB02326D
:10419C00A8E700234FF00A0C19460134059320467A
:1041AC0010F8012B303A092A03D9002BC6D00591FF
:1041BC00C4E7044601230CFB0121F0E703AB009399
:1041CC002A4638460E4B04A9AFF30080421C064623
:1041DC00D6D1AB895B063FF52DAF09982CE703AB25
:1041EC0000932A463846064B04A900F07DF8EDE70B
:1041FC00764600087C460008804600080000000057
:10420C00613F00082DE9F047164698468A680B690D
:10421C0007469342B8BF1346336091F843200C46CF
:10422C00DDF820900AB1013333602368990642BF50
:10423C00336802333360256815F0060506D104F1A6
:10424C00190AE36832689B1AAB422BDC94F84330B2
:10425C002268003B18BF0123920630D441463846F1
:10426C0004F14302C847013023D02368226903F0CC
:10427C000603042B14BF002533684FF0000608BF5B
:10428C00E56804F11A0408BFED1A54F8123C08BF93
:10429C0025EAE5759342C4BF9B1AED18B5421AD1B5
:1042AC00002008E00123524641463846C8470130F9
:1042BC0003D14FF0FF30BDE8F0870135C1E7302066
:1042CC00E11881F843005A1C94F84510224402333B
:1042DC0082F84310C2E70123224641463846C847BC
:1042EC000130E6D00136D9E72DE9FF470F7E914624
:1042FC00782F80460C469A460C9E01F1430207D853
:10430C00622F0AD8002F00F0D380582F00F0BA800B
:10431C0004F1420684F842703AE0A7F16303152BCE
:10432C00F6D801A151F823F08D430008A1430008F1
:10433C001D4300081D4300081D4300081D430008D1
:10434C00A14300081D4300081D4300081D4300083D
:10435C001D430008A3440008CB4300085D4400083B
:10436C001D4300081D430008C54400081D430008F8
:10437C00CB4300081D4300081D430008654400089A
:10438C0033681A1D1B68326004F1420684F842300F
:10439C0001239EE033682068191D3160060601D5A3
:1043AC001D6803E04506FBD5B3F90050002D03DA78
:1043BC002D236D4284F843300A23594811E02168BB
:1043CC003368080653F8045B02D4490648BFADB203
:1043DC006F2F336014BF0A2308235148002184F83F
:1043EC0043106668002EA8BF2168A660A4BF21F008
:1043FC00040121600DB9002E4BD01646B5FBF3F12C
:10440C0003FB1157C75D06F8017D2F46BB420D46D5
:10441C00F4D9082B0BD12368DF0708D52369616811
:10442C009942DEBF302306F8013C06F1FF36921BA1
:10443C0022614B4621464046CDF800A003AAFFF767
:10444C00E1FE01304AD14FF0FF3004B0BDE8F087F7
:10445C00236843F0200323607827324884F84570A2
:10446C00236831681F0651F8045B02D45F0648BF0D
:10447C00ADB23160D90744BF43F0200323601DB1B6
:10448C001023ABE72648E9E7236823F020032360D9
:10449C00F6E71646BDE733682568181D616930607C
:1044AC002E061B6801D5196002E06806FBD5198041
:1044BC00002316462361BCE7336800211A1D3260C5
:1044CC001E686268304600F059F808B1801B6060C5
:1044DC0063682361002384F84330AAE732464946D7
:1044EC0040462369D0470130ADD023689B0713D4D5
:1044FC00E068039B9842B8BF1846A6E701233246F2
:10450C0049464046D04701309DD00135E3680399B8
:10451C005B1AAB42F2DCEBE7002504F11906F5E778
:10452C008746000898460008884210B501EB020443
:10453C0002D98442234607D8431EA14208D011F861
:10454C00012B03F8012FF8E7014602448A4200D1FF
:10455C0010BD13F8014D02F8014DF7E738B50023F3
:10456C00054D044608462B60FDF758FA431C02D152
:10457C002B6803B1236038BD98030020034610B5A7
:10458C00C9B202449342184601D1002003E00478DA
:10459C0001338C42F6D110BD0A44914200F1FF3335
:1045AC0000D1704710B511F8014B914203F8014F3F
:1045BC00F9D110BD2DE9F041804615460C4621B9C4
:1045CC001146BDE8F041FFF739BC2AB9FFF7CCFB27
:1045DC0000242046BDE8F08100F01AF8854206461A
:1045EC0002D8B5EB500FF4D829464046FFF726FC0D
:1045FC0007460028ECD0B5422A46214628BF324651
:10460C00FFF7CAFF21464046FFF7AEFB3C46E0E70A
:10461C0051F8043C181F002BBCBF0B58C018704736
:10462C00F8B500BFF8BC08BC9E467047F8B500BF93
:08463C00F8BC08BC9E46704763
:10464400253032640000000000000000000000007B
:104654000102030406070809000000000102030424
:1046640002030405060708090A0B0C0D0E0F1010AF
:104674000102232D302B2000686C4C0065666745D1
:1046840046470030313233343536373839414243C6
:104694004445460030313233343536373839616277
:0846A40063646566000000007C
:0446AC0031010008D0
:0446B0000D010008F0
:1046B40000080140010000000100000001000000AA
:1046C4000100000001000000F401000000000000EF
:1046D400000000000000000000080140020000008B
:1046E40001000000010000000100000001000000C2
:1046F400F4010000000000000000000000000000C1
:10470400000801401000000001000000010000004A
:104714000100000001000000F4010000000000009E
:10472400000000000000000003000000050000007D
:10473400020000000A00000000127A0010000000CD
:10474400010000009800002000000000600200202A
:10475400C802002030030020000000000000000018
:104764000000000000000000000000000000000045
:104774000000000000000000000000000000000035
:104784000000000000000000000000000000000025
:044794000000000021
:0400000508001AA134
:00000001FF
