:020000040800F2
:1000000000500020BD120008451200084D120008E3
:10001000551200085D12000865120008000000007B
:100020000000000000000000000000006D12000849
:1000300079120008000000008512000891120008E3
:100040000513000805130008051300080513000830
:100050000513000805130008051300080513000820
:100060000513000805130008051300080513000810
:100070000513000805130008051300080513000800
:1000800005130008051300080513000805130008F0
:1000900005130008051300080513000805130008E0
:1000A00005130008051300080513000805130008D0
:1000B0009D12000805130008051300080513000829
:1000C00005130008051300080513000805130008B0
:1000D00005130008051300080513000805130008A0
:1000E00005130008051300080513000800000000B0
:1000F0000000000000000000000000000000000000
:0C01000000000000000000005FF808F1A3
:10010C0010B5054C237833B9044B13B10448AFF345
:10011C0000800123237010BD50000020000000005F
:10012C008C32000808B5034B1BB103490348AFF3ED
:10013C00008008BD00000000540000208C32000834
:10014C0090B585B000AF0023FB60DEE00023BB6000
:10015C0016E0BB68591C7148FA6813465B001344DF
:10016C0003440B4418786D49FA6813465B0013443A
:10017C00CA18BB68134402461A70BB680133BB60D3
:10018C00BB68012BE5DDFB68002B10D14FF48071AF
:10019C00634801F0CBFB034618466049FA681346E6
:1001AC005B0013440B44023302461A7022E0FB68D6
:1001BC00012B10D14FF40071594801F0B7FB0346E5
:1001CC0018465649FA6813465B0013440B44023335
:1001DC0002461A700EE08021524801F0A7FB03463C
:1001EC0018464E49FA6813465B0013440B4402331D
:1001FC0002461A7001237B6000233B601AE04749DA
:10020C00FA6813465B001344CA183B681344197808
:10021C003B68581C414CFA6813465B00134423445A
:10022C0003441B78994202D000237B6005E03B68B5
:10023C0001333B603B68012BE1DD3B4AFB685B0013
:10024C0013445978384AFB6802F813107B68012B69
:10025C000CD13249FA6813465B0013440B441978ED
:10026C00314AFB685B0013440A465A702F4AFB68FC
:10027C00002142F823102C4AFB685B0013445B7886
:10028C00002B35D12A4AFB6852F82330012B14DDA0
:10029C00274AFB6852F823305A1E2549FB6841F85F
:1002AC002320214AFB6812F81330012B2AD11F4A54
:1002BC00FB68012142F8231024E01E4AFB6852F827
:1002CC002330012B09DD1B4AFB6852F823305A1EE0
:1002DC001849FB6841F8232014E0164AFB681421E6
:1002EC0042F82310114AFB68012142F8231009E05F
:1002FC000F4AFB68C82142F823100E4AFB68012103
:10030C0042F82310FB680133FB60FB68022B7FF77C
:10031C001DAF00BF00BF1437BD4690BD00000020CC
:10032C0000080140001001400C0000206C0000206F
:10033C00140000202000002080B586B002AF0346D8
:10034C00FB71FB7923F00F03FB73FB791B01BB7370
:10035C00FB7B43F00C03DBB23B72FB7B43F00803EB
:10036C00DBB27B72BB7B43F00C03DBB2BB72BB7B9F
:10037C0043F00803DBB2FB7207F10802642300931D
:10038C0004234221034801F05DFC00BF1037BD4639
:10039C0080BD00BF8800002080B586B002AF034648
:1003AC00FB71FB7923F00F03FB73FB791B01BB7310
:1003BC00FB7B43F00D03DBB23B72FB7B43F0090389
:1003CC00DBB27B72BB7B43F00D03DBB2BB72BB7B3E
:1003DC0043F00903DBB2FB7207F1080264230093BC
:1003EC0004234221034801F02DFC00BF1037BD4609
:1003FC0080BD00BF8800002080B500AF3320FFF720
:10040C009BFF3220FFF798FF322000F0D9FF282005
:10041C00FFF792FF322000F0D3FF0120FFF78CFF93
:10042C00322000F0CDFF0620FFF786FF322000F0CF
:10043C00C7FF0C20FFF780FF322000F0C1FF022025
:10044C00FFF77AFF322000F0BBFF8020FFF774FF2C
:10045C0000BF80BD80B584B000AF786039607B6828
:10046C00012B08D17B68DAB23B68DBB21344DBB2F8
:10047C007F33FB7308E03B68DBB24033DBB25BB22B
:10048C0063F07F035BB2FB73FB7B1846FFF754FFF3
:10049C0000BF1037BD4680BD80B500AF994B1B68BF
:1004AC00012B11D1974B00221A60974B01221A6035
:1004BC00964B1B680133954A1360944B1B68032BB6
:1004CC0002DD924B00221A60904B1B68002B40F00F
:1004DC0021828D4B1B68012B25D18B4B00221A607E
:1004EC008B4B01225A608B4B1B688B4A13608B4BD6
:1004FC001B688B4A13608B4B00221A600022082168
:10050C00894801F02AFA00222021874801F025FAB7
:10051C0000221021844801F020FA00224FF480615F
:10052C00814801F01AFA7A4B5B68012B40F0168473
:10053C006421012000F096FD7A4B1B68002B6CD1D6
:10054C00754B1A68734B1B689A4214DB0122082105
:10055C00754801F002FA01222021734801F0FDF9DF
:10056C0001221021704801F0F8F900224FF480614B
:10057C006D4801F0F2F9684B1A68694B1B6813441B
:10058C006A4A82FB03129210DB17D31ADBB23033A8
:10059C00DAB2674B1A70604B1A68614B1B681A44CD
:1005AC00624B83FB02139910D317C91A0B469B009D
:1005BC000B445B00D11ACBB23033DAB25C4B5A70BD
:1005CC00554B1B68594A82FB03129210DB17D31A46
:1005DC00DBB23033DAB2564B9A704F4B1A68534B2E
:1005EC0083FB02139910D317C91A0B469B000B44BB
:1005FC005B00D11ACBB23033DAB24D4BDA70464BCA
:10060C001B68012B05DD444B1B68013B424A136000
:10061C00A4E3444B01221A60A0E3424B1B68012B5C
:10062C0040F088803E4B1A683C4B1B689A4214DBA6
:10063C00012208213C4801F090F9012220213A487E
:10064C0001F08BF900221021374801F086F90122C4
:10065C004FF48061344801F080F9314B1B68334A08
:10066C0082FB03129210DB17D31ADBB23033DAB2EF
:10067C002F4B1A702A4B1A682C4B83FB02139910C0
:10068C00D317C91A0B469B000B445B00D11ACBB293
:10069C003033DAB2264B5A70214B1B68234A82FB4B
:1006AC0003129210DB17D31ADBB23033DAB2204BC1
:1006BC009A701B4B1A681D4B83FB02139910D317AE
:1006CC00C91A0B469B000B445B00D11ACBB23033DA
:1006DC00DAB2174BDA70124B1B68012B05DD104B8D
:1006EC001B68013B0E4A136038E30E4B02221A6062
:1006FC00084B1B68084A1360084B1B68084A1360B8
:10070C002CE300BF6C00002034000020800000208F
:10071C00240100202C000020780000203000002054
:10072C007C00002084000020000C01406766666697
:10073C00380000206F4B1B68022B6CD16E4B1A6873
:10074C006E4B1B689A4214DB012208216C4801F0A5
:10075C0004F9002220216A4801F0FFF8012210213F
:10076C00674801F0FAF801224FF48061644801F007
:10077C00F4F8614B1B68634A82FB03129210DB177F
:10078C00D31ADBB23033DAB25F4B1A705A4B1A6899
:10079C005C4B83FB02139910D317C91A0B469B00B1
:1007AC000B445B00D11ACBB23033DAB2564B5A70D1
:1007BC00514B1A68554B1B681344524A82FB031267
:1007CC009210DB17D31ADBB23033DAB24E4B9A707D
:1007DC00494B1A684D4B1B681A444A4B83FB021356
:1007EC009910D317C91A0B469B000B445B00D11A06
:1007FC00CBB23033DAB2444BDA703F4B1B68012B6F
:10080C0005DD3D4B1B68013B3B4A1360A6E2394BAF
:10081C0003221A60A2E23D4B1A683D4B1B689A42B8
:10082C0014DB00220821364801F097F80122202120
:10083C00334801F092F801221021314801F08DF873
:10084C0001224FF480612E4801F087F82F4B1B6872
:10085C002C4A82FB03129210DB17D31ADBB2303313
:10086C00DAB2294B1A70294B1A68264B83FB0213F8
:10087C009910D317C91A0B469B000B445B00D11A75
:10088C00CBB23033DAB2204B5A70204B1B681D4A66
:10089C0082FB03129210DB17D31ADBB23033DAB2BD
:1008AC00194B9A70194B1A68164B83FB021399104B
:1008BC00D317C91A0B469B000B445B00D11ACBB261
:1008CC003033DAB2104BDA70104B1B68012B05DD9C
:1008DC000E4B1B68013B0D4A13603FE2054B002297
:1008EC001A60064B1B68044A1360094B1B68074AC5
:1008FC00136033E284000020780000202C000020DC
:10090C00000C014067666666380000207C00002001
:10091C00300000205B4B1B68012B40F0C9805A4B08
:10092C001B68012B4DD1584B00221A60574B0122EA
:10093C005A60574B1B68574A1360574B1B68574AF2
:10094C001360544B1A68554B1B681344544A82FB72
:10095C0003129210DB17D31ADBB23033DAB2514BDD
:10096C001A704C4B1A684D4B1B681A444C4B83FB4A
:10097C0002139910D317C91A0B469B000B445B004A
:10098C00D11ACBB23033DAB2464B5A70454B3022C7
:10099C009A70444B3222DA7000220821424800F04F
:1009AC00DCFF00222021404800F0D7FF002210215C
:1009BC003D4800F0D2FF00224FF480613A4800F02D
:1009CC00CCFF3A4B5B68012B36D1384B00225A6076
:1009DC00304B1B6801332F4A13602E4B1A682F4B78
:1009EC001B681344632B02DD2A4B01221A60294B2E
:1009FC001A682A4B1B681344294A82FB0312921073
:100A0C00DB17D31ADBB23033DAB2264B1A70214B18
:100A1C001A68224B1B681A44214B83FB0213991052
:100A2C00D317C91A0B469B000B445B00D11ACBB2EF
:100A3C003033DAB21B4B5A701C4B9B68012B06D11E
:100A4C001A4B00229A60134B1B68114A13600F4B10
:100A5C005B68012B40F082811921012000F002FB20
:100A6C000821114800F091FF20210F4800F08DFF64
:100A7C0010210D4800F089FF4FF480610A4800F006
:100A8C0084FF6BE180000020340000202401002052
:100A9C002C00002078000020300000207C0000207A
:100AAC006766666638000020000C01406C00002070
:100ABC00514B1B68022B40F0B580504B1B68012B2F
:100ACC0047D14E4B00221A604D4B01225A604D4BC0
:100ADC001B684D4A13604D4B1B684D4A13604C4BC1
:100AEC001B684C4A82FB03129210DB17D31ADBB241
:100AFC003033DAB2484B1A70454B1A68454B83FBBE
:100B0C0002139910D317C91A0B469B000B445B00B8
:100B1C00D11ACBB23033DAB23F4B5A703E4B302243
:100B2C009A703D4B3322DA70002208213B4800F0CA
:100B3C0014FF00222021394800F00FFF0022102161
:100B4C00364800F00AFF00224FF48061334800F071
:100B5C0004FF334B5B68012B30D1314B00225A60C0
:100B6C002B4B1B6801332A4A1360274B1A68284BFE
:100B7C001B681344632B02DD254B01221A60244BA6
:100B8C001B68244A82FB03129210DB17D31ADBB2C8
:100B9C003033DAB2204B1A701D4B1A681D4B83FB95
:100BAC0002139910D317C91A0B469B000B445B0018
:100BBC00D11ACBB23033DAB2174B5A70184B9B6840
:100BCC00012B06D1164B00229A60114B1B680F4A61
:100BDC0013600B4B5B68012B40F0C0801921012086
:100BEC0000F040FA20210D4800F0CFFE4FF4806158
:100BFC000A4800F0CAFEB1E080000020340000205A
:100C0C00240100202C00002078000020300000205F
:100C1C007C0000206766666638000020000C0140EE
:100C2C006C0000205C4B1B68012B47D15A4B0022F7
:100C3C001A605A4B01225A60594B1B68594A13606F
:100C4C00594B1B68594A1360564B1B68584A82FB18
:100C5C0003129210DB17D31ADBB23033DAB2554BD6
:100C6C001A70504B1A68524B83FB02139910D3170E
:100C7C00C91A0B469B000B445B00D11ACBB2303324
:100C8C00DAB24C4B5A704B4B30229A70494B34228F
:100C9C00DA7000220821484800F05FFE0022202173
:100CAC00454800F05AFE00221021434800F055FE42
:100CBC0000224FF48061404800F04FFE3F4B5B68D0
:100CCC00012B30D13D4B00225A60364B1B6801334F
:100CDC00344A1360334B1A68344B1B681344632B30
:100CEC0002DD304B01221A602E4B1B68304A82FB0E
:100CFC0003129210DB17D31ADBB23033DAB22D4B5E
:100D0C001A70284B1A682A4B83FB02139910D317BD
:100D1C00C91A0B469B000B445B00D11ACBB2303383
:100D2C00DAB2244B5A70254B9B68012B06D1234B0E
:100D3C0000229A601B4B1B68194A1360174B5B68A7
:100D4C00012B0BD11921012000F08CF908211A4834
:100D5C0000F01BFE1021184800F017FE00210020A7
:100D6C00FFF778FB134B1B781846FFF715FB114B5D
:100D7C005B781846FFF710FB0E210020FFF76AFB8B
:100D8C000C4B9B781846FFF707FB0A4BDB78184691
:100D9C00FFF702FB00BF80BD3400002024010020BF
:100DAC002C00002078000020300000207C00002067
:100DBC006766666638000020000C01406C0000205D
:100DCC0080B500AF00F09AFA00F018F800F0CCF8FB
:100DDC0000F07EF800F04EF8FFF70EFB064B1B6898
:100DEC00012BFBD10121002000F03CF9FFF7A8F901
:100DFC00FFF752FBF2E700BF2401002080B590B052
:100E0C0000AF07F1180328220021184602F00CFA53
:100E1C003B1D00221A605A609A60DA601A61022344
:100E2C00BB610123BB621023FB6200237B6307F1D0
:100E3C001803184601F05EFA0346002B01D000F0AF
:100E4C000AF90F237B600023BB600023FB600023A7
:100E5C003B6100237B613B1D0021184601F0CCFC5B
:100E6C000346002B01D000F0F6F800BF4037BD461A
:100E7C0080BD000080B500AF124B134A1A60114BB5
:100E8C00124A5A600F4B00229A600E4B0022DA6015
:100E9C000C4B4FF480421A610A4B00225A61094BE9
:100EAC0000229A61074B0022DA61064B00221A627B
:100EBC00044800F083FD0346002B01D000F0CBF872
:100ECC0000BF80BD8800002000540040A0860100B7
:100EDC0080B586B000AF07F1080300221A605A6093
:100EEC009A60DA603B4600221A605A601D4B4FF044
:100EFC0080421A601B4B41F63F725A60194B00221C
:100F0C009A60184B0922DA60164B00221A61154BB5
:100F1C0000229A61134801F0E9FD0346002B01D031
:100F2C0000F099F84FF48053BB6007F108031946A1
:100F3C000C4801F01AFF0346002B01D000F08BF88F
:100F4C0000233B6000237B603B461946054802F0BA
:100F5C00FBF80346002B01D000F07DF800BF1837DA
:100F6C00BD4680BDDC00002080B588B000AF07F125
:100F7C00100300221A605A609A60DA602A4B9B694F
:100F8C00294A43F008039361274B9B6903F008033C
:100F9C00FB60FB68244B9B69234A43F0100393616D
:100FAC00214B9B6903F01003BB60BB681E4B9B6914
:100FBC001D4A43F0040393611B4B9B6903F004032C
:100FCC007B607B6800224FF48761184800F0C5FCF9
:100FDC004FF487633B6101237B610023BB610223D8
:100FEC00FB6107F110031946104800F01BFB80232E
:100FFC003B6100237B610023BB6107F110031946A1
:10100C000B4800F00FFB4FF440733B6100237B61F6
:10101C000023BB6107F110031946064800F002FBE0
:10102C0000BF2037BD4680BD00100240000C0140BF
:10103C00001001400008014080B582B000AF78601C
:10104C007B681B68B3F1804F01D100F023F800BF1F
:10105C000837BD4680BD80B400AF72B600BF00BF7C
:10106C00FDE7000080B483B000AF78603960074AB8
:10107C007B68002142F8231005497B683A6841F8E7
:10108C00232000BF0C37BD4680BC704724010020D4
:10109C003C00002080B483B000AF00237B6017E0DD
:1010AC00104A7B6852F82330012B09DD0D4A7B680E
:1010BC0052F823305A1E0B497B6841F8232004E078
:1010CC00094A7B68012142F823107B6801337B605D
:1010DC007B68012BE4DD00BF00BF0C37BD4680BC34
:1010EC00704700BF3C0000202401002080B485B074
:1010FC0000AF154B9B69144A43F001039361124BEB
:10110C009B6903F00103BB60BB680F4BDB690E4AA4
:10111C0043F08053D3610C4BDB6903F080537B604D
:10112C007B680A4B5B68FB60FB6823F0E063FB6049
:10113C00FB6843F00073FB60044AFB68536000BF1C
:10114C001437BD4680BC70470010024000000140BF
:10115C0080B58AB000AF786007F1140300221A60E2
:10116C005A609A60DA607B681B681D4A934232D1E0
:10117C001C4B9B691B4A43F008039361194B9B69F9
:10118C0003F008033B613B694FF440737B6112230E
:10119C00BB6103233B6207F114031946124800F0AC
:1011AC0041FA124B5B687B627B6A43F0E0637B62C3
:1011BC007B6A43F002037B620C4A7B6A5360094BE7
:1011CC00DB69084A43F40013D361064BDB6903F473
:1011DC000013FB60FB6800BF2837BD4680BD00BF15
:1011EC000054004000100240000C0140000001407F
:1011FC0080B584B000AF78607B681B68B3F1804F1A
:10120C0013D10C4BDB690B4A43F00103D361094B3F
:10121C00DB6903F00103FB60FB68002200211C204A
:10122C0000F0C9F91C2000F0E2F900BF1037BD46F0
:10123C0080BD00BF0010024080B400AF00BFFDE7CE
:10124C0080B400AF00BFFDE780B400AF00BFFDE786
:10125C0080B400AF00BFFDE780B400AF00BFFDE776
:10126C0080B400AF00BFBD4680BC704780B400AFF7
:10127C0000BFBD4680BC704780B400AF00BFBD4608
:10128C0080BC704780B500AF00F07EF800BF80BD19
:10129C0080B500AF024801F078FC00BF80BD00BFF4
:1012AC00DC00002080B400AF00BFBD4680BC70479E
:1012BC00FFF7F8FF0B480C490C4A002302E0D45806
:1012CC00C4500433C4188C42F9D3094A094C002386
:1012DC0001E013600432A242FBD301F0ADFFFFF733
:1012EC006FFD70470000002050000020D83200082D
:1012FC005000002030010020FEE7000080B500AF58
:10130C00084B1B68074A43F010031360032000F0DE
:10131C0047F90F2000F008F8FFF7E8FE0023184605
:10132C0080BD00BF0020024080B582B000AF786065
:10133C00124B1A68124B1B7819464FF47A73B3FB95
:10134C00F1F3B2FBF3F3184600F05FF90346002B00
:10135C0001D001230EE07B680F2B0AD8002279689C
:10136C004FF0FF3000F027F9064A7B68136000232A
:10137C0000E0012318460837BD4680BD440000201C
:10138C004C0000204800002080B400AF054B1B78B7
:10139C001A46054B1B681344034A136000BFBD4635
:1013AC0080BC70474C0000202C01002080B400AFA2
:1013BC00024B1B681846BD4680BC70472C010020B0
:1013CC0080B584B000AF7860FFF7F0FFB8607B6841
:1013DC00FB60FB68B3F1FF3F05D00A4B1B781A4644
:1013EC00FB681344FB6000BFFFF7E0FF0246BB68DD
:1013FC00D31AFA689A42F7D800BF00BF1037BD461F
:10140C0080BD00BF4C00002080B485B000AF786078
:10141C007B6803F00703FB600C4BDB68BB60BA68AE
:10142C004FF6FF031340BB60FB681A02BB68134303
:10143C0043F0BF6343F40033BB60044ABB68D36022
:10144C0000BF1437BD4680BC704700BF00ED00E004
:10145C0080B400AF044BDB681B0A03F0070318468B
:10146C00BD4680BC704700BF00ED00E080B483B087
:10147C0000AF0346FB7197F90730002B0BDBFB79B0
:10148C0003F01F02064997F907305B09012000FAA7
:10149C0002F241F8232000BF0C37BD4680BC7047D8
:1014AC0000E100E080B483B000AF03463960FB710B
:1014BC0097F90730002B0ADB3B68DAB20C4997F935
:1014CC0007301201D2B20B4483F800230AE03B68C8
:1014DC00DAB20849FB7903F00F03043B1201D2B2D4
:1014EC000B441A7600BF0C37BD4680BC704700BF5A
:1014FC0000E100E000ED00E080B489B000AFF860DE
:10150C00B9607A60FB6803F00703FB61FB69C3F108
:10151C000703042B28BF0423BB61FB690433062B90
:10152C0002D9FB69033B00E000237B614FF0FF32E3
:10153C00BB6902FA03F3DA43BB681A407B699A4031
:10154C004FF0FF317B6901FA03F3D9437B680B4001
:10155C00134318462437BD4680BC704780B582B013
:10156C0000AF78607B68013BB3F1807F01D301232E
:10157C000FE00A4A7B68013B53600F214FF0FF30AC
:10158C00FFF790FF054B00229A60044B07221A606C
:10159C00002318460837BD4680BD00BF10E000E0B0
:1015AC0080B582B000AF78607868FFF72DFF00BF80
:1015BC000837BD4680BD80B586B000AF0346B96024
:1015CC007A60FB7300237B61FFF742FF78617A68D6
:1015DC00B9687869FFF790FF024697F90F3011460A
:1015EC001846FFF75FFF00BF1837BD4680BD80B5BA
:1015FC0082B000AF0346FB7197F907301846FFF72E
:10160C0035FF00BF0837BD4680BD80B582B000AF46
:10161C0078607868FFF7A2FF034618460837BD4686
:10162C0080BD000080B48BB000AF786039600023BF
:10163C007B6200233B6269E101227B6A02FA03F3BD
:10164C00FB613B681B68FA691340BB61BA69FB69B3
:10165C009A4240F058813B685B689A4A93425ED04C
:10166C00984A934275D8984A934258D0964A9342D6
:10167C006FD8964A934252D0944A934269D8944A6E
:10168C0093424CD0924A934263D8924A934246D0AA
:10169C00904A93425DD8122B2AD8122B59D801A20A
:1016AC0052F823F02B17000805170008171700082D
:1016BC00591700085F1700085F1700085F1700082C
:1016CC005F1700085F1700085F1700085F17000816
:1016DC005F1700085F1700085F1700085F17000806
:1016EC005F1700085F1700080D1700082117000886
:1016FC00794A934213D02CE03B68DB683B6229E0CB
:10170C003B68DB6804333B6224E03B68DB680833EE
:10171C003B621FE03B68DB680C333B621AE03B68C2
:10172C009B68002B02D104233B6213E03B689B684F
:10173C00012B05D108233B627B68FA691A6109E029
:10174C0008233B627B68FA695A6103E000233B6221
:10175C0000E000BFBB69FF2B01D87B6801E07B6810
:10176C0004337B61BB69FF2B02D87B6A9B0002E0D0
:10177C007B6A083B9B003B617B691A680F213B69C4
:10178C0001FA03F3DB431A40396A3B6901FA03F3AC
:10179C001A437B691A603B685B6803F08053002B2B
:1017AC0000F0B1804D4B9B694C4A43F001039361AF
:1017BC004A4B9B6903F00103BB60BB68484A7B6AD8
:1017CC009B08023352F82330FB607B6A03F003035F
:1017DC009B000F2202FA03F3DB43FA681340FB6011
:1017EC007B68404A934213D07B683F4A93420DD0AA
:1017FC007B683E4A934207D07B683D4A934201D1B5
:10180C00032306E0042304E0022302E0012300E0AA
:10181C0000237A6A02F0030292009340FA681343A1
:10182C00FB602F497B6A9B080233FA6841F823203E
:10183C003B685B6803F48013002B06D02D4B9A6831
:10184C002C49BB6913438B6006E02A4B9A68BB6931
:10185C00DB43284913408B603B685B6803F400133F
:10186C00002B06D0234BDA682249BB691343CB60AB
:10187C0006E0204BDA68BB69DB431E491340CB60A2
:10188C003B685B6803F40033002B06D0194B5A6895
:10189C001849BB6913434B6006E0164B5A68BB6989
:1018AC00DB43144913404B603B685B6803F48033A3
:1018BC00002B21D00F4B1A680E49BB6913430B60E8
:1018CC0021E000BF00003210000031100000221097
:1018DC000000211000001210000011100010024036
:1018EC000000014000080140000C014000100140C4
:1018FC0000140140000401400B4B1A68BB69DB4328
:10190C00094913400B607B6A01337B623B681A68A0
:10191C007B6A22FA03F3002B7FF48EAE00BF00BF6C
:10192C002C37BD4680BC70470004014080B485B0A4
:10193C0000AF78600B467B807B689A687B8813408D
:10194C00002B02D00123FB7301E00023FB73FB7B14
:10195C0018461437BD4680BC704780B483B000AFC6
:10196C0078600B467B8013467B707B78002B03D012
:10197C007A887B681A6103E07B881A047B681A6199
:10198C0000BF0C37BD4680BC704780B485B000AF3B
:10199C0078600B467B807B68DB68FB607A88FB6831
:1019AC0013401A04FB68D9437B880B401A437B68AD
:1019BC001A6100BF1437BD4680BC704780B584B037
:1019CC0000AF78607B68002B01D101232BE17B6891
:1019DC0093F83D30DBB2002B06D17B68002283F8F4
:1019EC003C207868FFF7B4FB7B68242283F83D2009
:1019FC007B681B681A687B681B6822F001021A60FE
:101A0C007B681B681A687B681B6842F400421A608A
:101A1C007B681B681A687B681B6822F400421A609A
:101A2C0001F032F8F8607B685B68814A934207D812
:101A3C00FB68804A934294BF01230023DBB206E08B
:101A4C00FB687D4A934294BF01230023DBB2002B39
:101A5C0001D00123E7E0FB68784AA2FB03239B0C2F
:101A6C00BB607B681B685B6823F03F017B681B686D
:101A7C00BA680A435A607B681B681B6A23F03F01F3
:101A8C007B685B686A4A934202D8BB68013309E001
:101A9C00BB684FF4967202FB03F3694AA2FB032363
:101AAC009B0901337A6812680B4313627B681B68CD
:101ABC00DB6923F44F4222F0FF027B685B685C49D0
:101ACC008B4219D8FB68591E7B685B685B00B1FBC5
:101ADC00F3F3591C40F6FC730B40002B0AD0FB6847
:101AEC00591E7B685B685B00B1FBF3F30133C3F3F6
:101AFC000B0351E004234FE07B689B68002B11D152
:101B0C00FB68581E7B6859680B465B000B44B0FBA6
:101B1C00F3F30133C3F30B03002B0CBF012300239E
:101B2C00DBB212E0FB68581E7B6859680B469B00C1
:101B3C000B4499000B44B0FBF3F30133C3F30B03D9
:101B4C00002B0CBF01230023DBB2002B01D001239F
:101B5C0022E07B689B68002B0ED1FB68581E7B68CB
:101B6C0059680B465B000B44B0FBF3F30133C3F332
:101B7C000B0343F400430FE0FB68581E7B68596865
:101B8C000B469B000B4499000B44B0FBF3F3013361
:101B9C00C3F30B0343F44043796809681343CB61E7
:101BAC007B681B681B6823F0C0017B68DA697B6863
:101BBC001B6A1A437B681B680A431A607B681B68A4
:101BCC009B6823F4034323F0FF037A6811697A6856
:101BDC00D26811437A6812680B4393607B681B6868
:101BEC00DB6823F0FF017B685A697B689B691A43A9
:101BFC007B681B680A43DA607B681B681A687B6821
:101C0C001B6842F001021A607B6800221A647B6830
:101C1C00202283F83D207B6800221A637B68002217
:101C2C0083F83E20002318461037BD4680BD00BF08
:101C3C00A08601007F841E00FF083D0083DE1B434D
:101C4C00D34D621080B588B002AFF8607A601A4646
:101C5C000B467B8113463B81FFF7A8FB7861FB6841
:101C6C0093F83D30DBB2202B40F0E0807B69009391
:101C7C00192301227049F86800F064F90346002B1F
:101C8C0001D00223D3E0FB6893F83C30012B01D147
:101C9C000223CCE0FB68012283F83C20FB681B6824
:101CAC001B6803F00103012B07D0FB681B681A6843
:101CBC00FB681B6842F001021A60FB681B681A681B
:101CCC00FB681B6822F400621A60FB68212283F80F
:101CDC003D20FB68102283F83E20FB6800221A642A
:101CEC00FB687A685A62FB683A895A85FB685B8D97
:101CFC009AB2FB681A85FB68504ADA6279897B696B
:101D0C003A6AF86800F09CF80346002B01D00123D6
:101D1C008DE000233B61FB681B685B693B61FB68E2
:101D2C001B689B693B613B6966E07A69396AF868B4
:101D3C0000F022FA0346002B0DD0FB681B6C042B21
:101D4C0007D1FB681B681A68FB681B6842F40072B9
:101D5C001A6001236BE0FB685B6A1A78FB681B68EE
:101D6C001A61FB685B6A5A1CFB685A62FB685B8DE4
:101D7C009BB2013B9AB2FB685A85FB681B8D013BF9
:101D8C009AB2FB681A85FB681B685B6903F0040355
:101D9C00042B1BD1FB681B8D002B17D0FB685B6AD7
:101DAC001A78FB681B681A61FB685B6A5A1CFB6833
:101DBC005A62FB685B8D9BB2013B9AB2FB685A85F9
:101DCC00FB681B8D013B9AB2FB681A857A69396AEC
:101DDC00F86800F019FA0346002B0DD0FB681B6C59
:101DEC00042B07D1FB681B681A68FB681B6842F45C
:101DFC0000721A6001231AE0FB681B8D002B94D132
:101E0C00FB681B681A68FB681B6842F400721A6056
:101E1C00FB68202283F83D20FB68002283F83E20DB
:101E2C00FB68002283F83C20002300E002231846C4
:101E3C001837BD4680BD00BF020010000000FFFF38
:101E4C0080B588B002AFF8607A603B600B467B814E
:101E5C00FB68DB6A7B617B69082B06D07B69012BF5
:101E6C0003D07B6913F5803F08D1FB681B681A68A7
:101E7C00FB681B6842F480721A600BE0FB681B6BFA
:101E8C00122B07D1FB681B681A68FB681B6842F4AD
:101E9C0080721A603B6800937B6800224FF001113E
:101EAC00F86800F04FF80346002B0DD0FB681B6858
:101EBC001B6803F48073B3F5807F03D1FB684FF488
:101ECC0000721A64032335E0FB681B69B3F5804F7D
:101EDC0008D17B89DBB21A46FB681B6802F0FE0254
:101EEC001A611BE07B89DB11DBB203F00603DBB26A
:101EFC0063F00F03DAB2FB681B681A613B687A68FF
:101F0C000E49F86800F098F80346002B01D0012325
:101F1C0010E07B89DAB2FB681B681A613B687A684F
:101F2C000749F86800F088F80346002B01D001231C
:101F3C0000E0002318461837BD4680BD080001009C
:101F4C000200010080B584B000AFF860B9603B605E
:101F5C001346FB7148E03B68B3F1FF3F44D0FFF7F9
:101F6C0025FA0246BB69D31A3A689A4202D33B68F7
:101F7C00002B39D1BB681B0CDBB2012B0DD1FB68DC
:101F8C001B685B69DA43BB6813409BB2002B0CBF28
:101F9C0001230023DBB21A460CE0FB681B689B692B
:101FAC00DA43BB6813409BB2002B0CBF0123002308
:101FBC00DBB21A46FB799A4216D1FB6800221A63EF
:101FCC00FB68202283F83D20FB68002283F83E202A
:101FDC00FB681B6C43F02002FB681A64FB68002250
:101FEC0083F83C20012323E0BB681B0CDBB2012BE4
:101FFC000DD1FB681B685B69DA43BB6813409BB26D
:10200C00002B0CBF01230023DBB21A460CE0FB684B
:10201C001B689B69DA43BB6813409BB2002B0CBF57
:10202C0001230023DBB21A46FB799A4293D000239A
:10203C0018461037BD4680BD80B584B000AFF8603F
:10204C00B9607A603B6071E0FB681B685B6903F404
:10205C008063B3F5806F23D1FB681B681A68FB683B
:10206C001B6842F400721A60FB681B686FF4806294
:10207C005A61FB6800221A63FB68202283F83D201A
:10208C00FB68002283F83E20FB681B6C43F00402C3
:10209C00FB681A64FB68002283F83C20012367E08C
:1020AC007B68B3F1FF3F41D0FFF780F902463B68F4
:1020BC00D31A7A689A4202D37B68002B36D1BB685C
:1020CC001B0CDBB2012B0CD1FB681B685B69DA4380
:1020DC00BB6813409BB2002B14BF01230023DBB25F
:1020EC000BE0FB681B689B69DA43BB6813409BB22F
:1020FC00002B14BF01230023DBB2002B16D0FB688E
:10210C0000221A63FB68202283F83D20FB68002222
:10211C0083F83E20FB681B6C43F02002FB681A64BA
:10212C00FB68002283F83C20012321E0BB681B0CD8
:10213C00DBB2012B0CD1FB681B685B69DA43BB6813
:10214C0013409BB2002B14BF01230023DBB20BE026
:10215C00FB681B689B69DA43BB6813409BB2002B7E
:10216C0014BF01230023DBB2002B7FF46DAF0023DF
:10217C0018461037BD4680BD80B584B000AFF860FE
:10218C00B9607A6034E0F86800F086F80346002BFA
:10219C0001D0012334E0BB68B3F1FF3F28D0FFF737
:1021AC0005F902467B68D31ABA689A4202D3BB6817
:1021BC00002B1DD1FB681B685B6903F08003802B2F
:1021CC0016D0FB6800221A63FB68202283F83D209E
:1021DC00FB68002283F83E20FB681B6C43F0200256
:1021EC00FB681A64FB68002283F83C20012307E09B
:1021FC00FB681B685B6903F08003802BC3D1002351
:10220C0018461037BD4680BD80B584B000AFF8606D
:10221C00B9607A6034E0F86800F03EF80346002BB1
:10222C0001D0012334E0BB68B3F1FF3F28D0FFF7A6
:10223C00BDF802467B68D31ABA689A4202D3BB68CF
:10224C00002B1DD1FB681B685B6903F00403042B96
:10225C0016D0FB6800221A63FB68202283F83D200D
:10226C00FB68002283F83E20FB681B6C43F02002C5
:10227C00FB681A64FB68002283F83C20012307E00A
:10228C00FB681B685B6903F00403042BC3D10023B8
:10229C0018461037BD4680BD80B483B000AF78605F
:1022AC007B681B685B6903F48063B3F5806F1BD19B
:1022BC007B681B686FF480625A617B6800221A632A
:1022CC007B68202283F83D207B68002283F83E2027
:1022DC007B681B6C43F004027B681A647B680022E9
:1022EC0083F83C20012300E0002318460C37BD4640
:1022FC0080BC704780B586B000AF78607B68002BDF
:10230C0001D1012372E27B681B6803F00103002BEF
:10231C0000F08780924B5B6803F00C03042B0CD00D
:10232C008F4B5B6803F00C03082B12D18C4B5B6852
:10233C0003F48033B3F5803F0BD1894B1B6803F456
:10234C000033002B6CD07B685B68002B68D10123B9
:10235C004CE27B685B68B3F5803F06D1804B1B6811
:10236C007F4A43F4803313602EE07B685B68002B5C
:10237C000CD17B4B1B687A4A23F480331360784B67
:10238C001B68774A23F4802313601DE07B685B682D
:10239C00B3F5A02F0CD1724B1B68714A43F4802308
:1023AC0013606F4B1B686E4A43F4803313600BE071
:1023BC006B4B1B686A4A23F480331360684B1B68B1
:1023CC00674A23F4802313607B685B68002B13D06F
:1023DC00FEF7ECFF386108E0FEF7E8FF02463B69C8
:1023EC00D31A642B01D9032300E25D4B1B6803F461
:1023FC000033002BF0D014E0FEF7D8FF386108E072
:10240C00FEF7D4FF02463B69D31A642B01D9032390
:10241C00ECE1534B1B6803F40033002BF0D100E0CC
:10242C0000BF7B681B6803F00203002B63D04C4B8E
:10243C005B6803F00C03002B0BD0494B5B6803F07B
:10244C000C03082B1CD1464B5B6803F48033002B28
:10245C0016D1434B1B6803F00203002B05D07B689D
:10246C001B69012B01D00123C0E13D4B1B6823F0FC
:10247C00F8027B685B69DB00394913430B603AE077
:10248C007B681B69002B20D0364B01221A60FEF7AB
:10249C008DFF386108E0FEF789FF02463B69D31ACD
:1024AC00022B01D90323A1E12D4B1B6803F002037E
:1024BC00002BF0D02A4B1B6823F0F8027B685B6979
:1024CC00DB00274913430B6015E0264B00221A60F2
:1024DC00FEF76CFF386108E0FEF768FF02463B69C7
:1024EC00D31A022B01D9032380E11D4B1B6803F087
:1024FC000203002BF0D17B681B6803F00803002B50
:10250C003AD07B689B69002B19D0174B01221A60BB
:10251C00FEF74CFF386108E0FEF748FF02463B69C6
:10252C00D31A022B01D9032360E10D4B5B6A03F034
:10253C000203002BF0D0012000F0BAFA1CE00A4B89
:10254C0000221A60FEF732FF38610FE0FEF72EFF13
:10255C0002463B69D31A022B08D9032346E100BF7C
:10256C00001002400000424280044242924B5B6ADF
:10257C0003F00203002BE9D17B681B6803F0040312
:10258C00002B00F0A6800023FB758B4BDB6903F05E
:10259C008053002B0DD1884BDB69874A43F0805365
:1025AC00D361854BDB6903F08053BB60BB680123AF
:1025BC00FB75824B1B6803F48073002B18D17F4B87
:1025CC001B687E4A43F480731360FEF7EFFE38619C
:1025DC0008E0FEF7EBFE02463B69D31A642B01D9E7
:1025EC00032303E1754B1B6803F48073002BF0D0BD
:1025FC007B68DB68012B06D16F4B1B6A6E4A43F07C
:10260C00010313622DE07B68DB68002B0CD16A4B55
:10261C001B6A694A23F001031362674B1B6A664A03
:10262C0023F0040313621CE07B68DB68052B0CD1E0
:10263C00614B1B6A604A43F0040313625E4B1B6AD6
:10264C005D4A43F0010313620BE05B4B1B6A5A4A71
:10265C0023F001031362584B1B6A574A23F00403FF
:10266C0013627B68DB68002B15D0FEF79FFE386188
:10267C000AE0FEF79BFE02463B69D31A41F2883210
:10268C00934201D90323B1E04B4B1B6A03F00203C5
:10269C00002BEED014E0FEF789FE38610AE0FEF75D
:1026AC0085FE02463B69D31A41F28832934201D926
:1026BC0003239BE0404B1B6A03F00203002BEED17B
:1026CC00FB7D012B05D13C4BDB693B4A23F080534E
:1026DC00D3617B68DB69002B00F08780364B5B682D
:1026EC0003F00C03082B61D07B68DB69022B46D10D
:1026FC00334B00221A60FEF759FE386108E0FEF7F2
:10270C0055FE02463B69D31A022B01D903236DE017
:10271C00294B1B6803F00073002BF0D17B681B6AFC
:10272C00B3F5803F08D1244B5B6823F400327B68FF
:10273C009B68214913434B601F4B5B6823F4741255
:10274C007B68196A7B685B6A0B431B4913434B60BC
:10275C001B4B01221A60FEF729FE386108E0FEF7D8
:10276C0025FE02463B69D31A022B01D903233DE017
:10277C00114B1B6803F00073002BF0D035E0104BAD
:10278C0000221A60FEF712FE386108E0FEF70EFE1A
:10279C0002463B69D31A022B01D9032326E0064BD0
:1027AC001B6803F00073002BF0D11EE07B68DB6923
:1027BC00012B07D1012319E00010024000700040EA
:1027CC00600042420B4B5B68FB60FB6803F4803299
:1027DC007B681B6A9A4206D1FB6803F470127B6813
:1027EC005B6A9A4201D0012300E000231846183797
:1027FC00BD4680BD0010024080B584B000AF78604B
:10280C0039607B68002B01D10123D0E06A4B1B6837
:10281C0003F007033A689A4210D9674B1B6823F000
:10282C00070265493B6813430B60634B1B6803F05D
:10283C0007033A689A4201D00123B8E07B681B6811
:10284C0003F00203002B20D07B681B6803F0040309
:10285C00002B05D0594B5B68584A43F4E063536036
:10286C007B681B6803F00803002B05D0534B5B6897
:10287C00524A43F460535360504B5B6823F0F002B0
:10288C007B689B684D4913434B607B681B6803F066
:10289C000103002B40D07B685B68012B07D1474BB1
:1028AC001B6803F40033002B15D101237FE07B68F8
:1028BC005B68022B07D1414B1B6803F00073002BA4
:1028CC0009D1012373E03D4B1B6803F00203002B7D
:1028DC0001D101236BE0394B5B6823F003027B6869
:1028EC005B68364913434B60FEF760FDF8600AE005
:1028FC00FEF75CFD0246FB68D31A41F28832934224
:10290C0001D9032353E02D4B5B6803F00C027B6869
:10291C005B689B009A42EBD1274B1B6803F00703C3
:10292C003A689A4210D2244B1B6823F007022249C2
:10293C003B6813430B60204B1B6803F007033A689A
:10294C009A4201D0012332E07B681B6803F0040338
:10295C00002B08D0194B5B6823F4E0627B68DB68C2
:10296C00164913434B607B681B6803F00803002B6C
:10297C0009D0124B5B6823F460527B681B69DB0047
:10298C000E4913434B6000F021F802460B4B5B6879
:10299C001B0903F00F030A49CB5C22FA03F3094A23
:1029AC001360094B1B681846FEF7BEFC0023184643
:1029BC001037BD4680BD00BF002002400010024011
:1029CC00A4320008440000204800002080B487B0E6
:1029DC0000AF0023FB600023BB6000237B6100235E
:1029EC007B6000233B611E4B5B68FB60FB6803F064
:1029FC000C03042B02D0082B03D027E0194B3B61AE
:102A0C0027E0FB689B0C03F00F03174AD35C7B6039
:102A1C00FB6803F48033002B10D0114B5B685B0C0C
:102A2C0003F00103114AD35CBB607B680D4A03FBC6
:102A3C0002F2BB68B2FBF3F37B6104E07B680C4AE7
:102A4C0002FB03F37B617B693B6102E0054B3B615D
:102A5C0000BF3B6918461C37BD4680BC704700BFA1
:102A6C000010024000127A00BC320008CC32000880
:102A7C0000093D0080B400AF024B1B681846BD46F0
:102A8C0080BC70474400002080B500AFFFF7F2FF18
:102A9C000246054B5B681B0A03F007030349CB5C3A
:102AAC0022FA03F3184680BD00100240B43200082D
:102ABC0080B485B000AF78600A4B1B680A4AA2FB51
:102ACC0003235B0A7A6802FB03F3FB6000BFFB681D
:102ADC005A1EFA60002BF9D100BF00BF1437BD4657
:102AEC0080BC704744000020D34D621080B582B08A
:102AFC0000AF78607B68002B01D1012341E07B683B
:102B0C0093F83D30DBB2002B06D17B68002283F8B2
:102B1C003C207868FEF76CFB7B68022283F83D2032
:102B2C007B681A687B6804331946104600F008FA73
:102B3C007B68012283F846207B68012283F83E20C3
:102B4C007B68012283F83F207B68012283F84020B8
:102B5C007B68012283F841207B68012283F84220A4
:102B6C007B68012283F843207B68012283F8442090
:102B7C007B68012283F845207B68012283F83D2085
:102B8C00002318460837BD4680BD80B584B000AF21
:102B9C0078607B681B68DB68FB607B681B681B6963
:102BAC00BB60BB6803F00203002B20D0FB6803F072
:102BBC000203002B1BD07B681B686FF002021A61AA
:102BCC007B6801221A777B681B689B6903F00303FF
:102BDC00002B03D0786800F098F905E0786800F0D5
:102BEC008BF9786800F09AF97B6800221A77BB6839
:102BFC0003F00403002B20D0FB6803F00403002B2C
:102C0C001BD07B681B686FF004021A617B68022280
:102C1C001A777B681B689B6903F44073002B03D005
:102C2C00786800F072F905E0786800F065F978686A
:102C3C0000F074F97B6800221A77BB6803F0080374
:102C4C00002B20D0FB6803F00803002B1BD07B6803
:102C5C001B686FF008021A617B6804221A777B6884
:102C6C001B68DB6903F00303002B03D0786800F0CA
:102C7C004CF905E0786800F03FF9786800F04EF9FF
:102C8C007B6800221A77BB6803F01003002B20D05E
:102C9C00FB6803F01003002B1BD07B681B686FF0E4
:102CAC0010021A617B6808221A777B681B68DB6943
:102CBC0003F44073002B03D0786800F026F905E08C
:102CCC00786800F019F9786800F028F97B68002220
:102CDC001A77BB6803F00103002B0CD0FB6803F0E0
:102CEC000103002B07D07B681B686FF001021A618F
:102CFC007868FEF7A1F9BB6803F08003002B0CD0B9
:102D0C00FB6803F08003002B07D07B681B686FF017
:102D1C0080021A61786800F07EFABB6803F0400309
:102D2C00002B0CD0FB6803F04003002B07D07B6812
:102D3C001B686FF040021A61786800F0F8F8BB6805
:102D4C0003F02003002B0CD0FB6803F02003002BB6
:102D5C0007D07B681B686FF020021A61786800F05E
:102D6C0051FA00BF1037BD4680BD80B584B000AFAE
:102D7C00786039600023FB737B6893F83C30012B3F
:102D8C0001D10223B4E07B68012283F83C207B68EC
:102D9C00022283F83D207B681B689B68BB60BB6884
:102DAC0023F07703BB60BB6823F47F43BB607B6875
:102DBC001B68BA689A603B681B68B3F5005F3ED02D
:102DCC00B3F5005F00F28780B3F5805F00F086807A
:102DDC00B3F5805F7FD8702B1AD0702B7BD8602B0B
:102DEC0050D0602B77D8502B3CD0502B73D8402B25
:102DFC0058D0402B6FD8302B64D0302B6BD8202B75
:102E0C0060D0202B67D8002B5CD0102B5AD062E0FE
:102E1C007B6818683B6899683B685A683B68DB6854
:102E2C0000F073F97B681B689B68BB60BB6843F060
:102E3C007703BB607B681B68BA689A604FE07B685D
:102E4C0018683B6899683B685A683B68DB6800F017
:102E5C005CF97B681B689A687B681B6842F480424B
:102E6C009A603CE07B6818683B6859683B68DB6893
:102E7C001A4600F0D3F87B681B685021184600F006
:102E8C002AF92CE07B6818683B6859683B68DB685A
:102E9C001A4600F0F1F87B681B686021184600F0B8
:102EAC001AF91CE07B6818683B6859683B68DB685A
:102EBC001A4600F0B3F87B681B684021184600F0F6
:102ECC000AF90CE07B681A683B681B6819461046C7
:102EDC0000F001F903E00123FB7300E000BF7B6805
:102EEC00012283F83D207B68002283F83C20FB7B89
:102EFC0018461037BD4680BD80B483B000AF7860F3
:102F0C0000BF0C37BD4680BC704780B483B000AFA7
:102F1C00786000BF0C37BD4680BC704780B483B06E
:102F2C0000AF786000BF0C37BD4680BC704780B4E2
:102F3C0083B000AF786000BF0C37BD4680BC7047D3
:102F4C0080B485B000AF786039607B681B68FB602B
:102F5C007B682F4A93420BD07B68B3F1804F07D02C
:102F6C007B682C4A934203D07B682B4A934208D14E
:102F7C00FB6823F07003FB603B685B68FA681343E3
:102F8C00FB607B68224A93420BD07B68B3F1804F85
:102F9C0007D07B681F4A934203D07B681E4A93423A
:102FAC0008D1FB6823F44073FB603B68DB68FA686C
:102FBC001343FB60FB6823F080023B685B6913439F
:102FCC00FB607B68FA681A603B689A687B68DA6217
:102FDC003B681A687B689A627B680D4A934203D1FE
:102FEC003B681A697B681A637B6801225A617B68AB
:102FFC001B6903F00103002B05D07B681B6923F0D0
:10300C0001027B681A6100BF1437BD4680BC704753
:10301C00002C0140000400400008004080B487B040
:10302C0000AFF860B9607A60FB681B6A7B61FB6873
:10303C001B6A23F00102FB681A62FB689B693B6107
:10304C003B6923F0F0033B617B681B013A69134336
:10305C003B617B6923F00A037B617A69BB6813438C
:10306C007B61FB683A699A61FB687A691A6200BFF6
:10307C001C37BD4680BC704780B487B000AFF86089
:10308C00B9607A60FB681B6A7B61FB681B6A23F082
:10309C001002FB681A62FB689B693B613B6923F475
:1030AC0070433B617B681B033A6913433B617B694B
:1030BC0023F0A0037B61BB681B017A6913437B611E
:1030CC00FB683A699A61FB687A691A6200BF1C371F
:1030DC00BD4680BC704780B485B000AF7860396065
:1030EC007B689B68FB60FB6823F07003FB603A68AD
:1030FC00FB68134343F00703FB607B68FA689A6034
:10310C0000BF1437BD4680BC704780B487B000AF99
:10311C00F860B9607A603B60FB689B687B617B6997
:10312C0023F47F437B613B681A027B681A43BB68BC
:10313C0013437A6913437B61FB687A699A6000BF19
:10314C001C37BD4680BC704780B485B000AF78603A
:10315C0039607B6893F83C30012B01D1022346E0A7
:10316C007B68012283F83C207B68022283F83D2097
:10317C007B681B685B68FB607B681B689B68BB603B
:10318C00FB6823F07003FB603B681B68FA68134311
:10319C00FB607B681B68FA685A607B681B68164A80
:1031AC0093420ED07B681B68B3F1804F09D07B68CB
:1031BC001B68124A934204D07B681B68104A9342E6
:1031CC000CD1BB6823F08003BB603B685B68BA68BA
:1031DC001343BB607B681B68BA689A607B680122EA
:1031EC0083F83D207B68002283F83C20002318469E
:1031FC001437BD4680BC7047002C014000040040D1
:10320C000008004080B483B000AF786000BF0C377A
:10321C00BD4680BC704780B483B000AF786000BFFF
:10322C000C37BD4680BC704703460244934200D124
:10323C00704703F8011BF9E770B500260C4D0D4CD7
:10324C00641BA410A64209D100F01AF800260A4DFE
:10325C000A4C641BA410A64205D170BD55F8043B62
:10326C0098470136EEE755F8043B98470136F2E7EC
:10327C00D0320008D0320008D0320008D432000816
:10328C00F8B500BFF8BC08BC9E467047F8B500BF47
:08329C00F8BC08BC9E46704717
:1032A40000000000000000000102030406070809F2
:1032B40000000000010203040203040506070809D4
:0C32C4000A0B0C0D0E0F10100102000090
:0432D00031010008C0
:0432D4000D010008E0
:1032D80001010101010101010100000001010101D9
:1032E80001010000C8000000C8000000C80000007C
:1032F80001000000010000000100000007000000BC
:10330800030000000100000030303030640000008D
:103318006400000000127A001000000001000000A4
:04000005080012BD20
:00000001FF
